:020000040800F2
:10000000D8080020390500080D0300080F03000878
:1000100013030008170300081B030008000000007A
:100020000000000000000000000000001F030008A6
:100030002103000800000000230300082503000836
:100040005305000853050008530500085305000830
:100050005305000853050008530500085305000820
:100060005305000853050008530500085305000810
:100070005305000853050008530500085305000800
:1000800053050008530500085305000853050008F0
:1000900053050008530500085305000853050008E0
:1000A00053050008530500085305000853050008D0
:1000B00053050008530500085305000853050008C0
:1000C00053050008530500085305000853050008B0
:1000D00053050008032200085305000853050008D3
:1000E0005305000853050008530500085305000890
:1000F0005305000853050008530500085305000880
:10010000530500085305000853050008530500086F
:100110005305000853050008032B00085305000889
:10012000530500085305000853050008530500084F
:10013000530500085305000853050008530500083F
:10014000530500085305000853050008530500082F
:10015000530500085305000853050008530500081F
:10016000530500085305000853050008530500080F
:1001700053050008530500085305000853050008FF
:10018000530500085305000800F002F800F07EF85F
:100190000AA090E8000C82448344AAF10107DA45E2
:1001A00001D100F073F8AFF2090EBAE80F0013F0B6
:1001B000010F18BFFB1A43F001031847185600003F
:1001C000385600000A444FF0000C10F8013B13F0C1
:1001D000070408BF10F8014B1D1108BF10F8015BA0
:1001E000641E05D010F8016B641E01F8016BF9D193
:1001F00013F0080F1EBF10F8014BAD1C0C1B09D1EA
:100200006D1E58BF01F801CBFAD505E014F8016B5B
:1002100001F8016B6D1EF9D59142D6D370470000ED
:100220000023002400250026103A28BF78C1FBD8FF
:10023000520728BF30C148BF0B607047662905F0E0
:100240004A81642903F0F282752903F0EF8278294C
:1002500003F02883632903F09D86732903F0A286A7
:10026000002070471FB505F031F903F0F5FE0400DA
:100270000020002104F0D2FC401C6060002000211E
:1002800004F0B6FCE0601FBD10B510BD04F04CF8E2
:100290001146FFF7E7FF00F009F804F078F803B41F
:1002A000FFF7F2FF03BC01F04DFF00004FF4E13017
:1002B00001F055FFA82001F0C3FE0F48416854200B
:1002C000884702F0D7F8002002F0FBF912E00B4853
:1002D00002F00DFA094890ED021BB0EE410AF0EE73
:1002E000610A53EC102B06A003F044FA4FF47A7025
:1002F00001F008FFEBE700007C000020380200203E
:10030000616E676C653A256C660D0A00704700BF28
:10031000FEE700BFFEE700BFFEE700BFFEE7704755
:1003200070477047704700000CB5002001900090A6
:100330007648006840F480307449086000BF734814
:10034000006800F4003000900198401C0190009873
:1003500018B90198B0F5A04FF1D16C48006800F4CD
:10036000003010B10120009001E0002000900098C2
:10037000012846D165484030006840F0805063490C
:10038000403108606248006840F4404060490860BD
:100390005E48083000685D4908310860084600681A
:1003A00040F4004008600846006840F4A05008602F
:1003B0005848091F0860081F006840F08070091F36
:1003C000086000BF5148006800F000700028F9D0B4
:1003D00040F20570504908604C480830006820F031
:1003E00003004A49083108600846006840F00200EE
:1003F000086000BF45480830006800F00C0008287D
:10040000F8D10CBD10B54548006840F47000434970
:1004100008603E48006840F001003C490860002048
:100420003A4908310860394800683D490840374971
:1004300008603C48091D0860081F006820F48020FF
:10044000091F0860002031490C310860FFF76CFF7C
:100450004FF0006031498039086010BD70B5002050
:100460000022022300240221284D08352D6805F0C2
:100470000C0020B1042806D0082834D107E02A4D0A
:100480002A4E356033E02A4D284E35602FE01F4D4F
:100490002D1D2D68C5F380541C4D2D1D2D6805F0B4
:1004A0003F0154B1224DB5FBF1F5184E361D3668AB
:1004B000C6F3881605FB06F209E01B4DB5FBF1F506
:1004C000124E361D3668C6F3881605FB06F20F4D30
:1004D0002D1D2D68C5F301456D1C6B00B2FBF3F5B6
:1004E000124E356003E0104D104E356000BF00BF66
:1004F000064D08352D68C5F303150E4E705D0B4D86
:100500002D68C540094E356070BD000000380240BE
:100510000070004008544007003C024088ED00E0B5
:10052000FFFFF6FE103000240024F400000000203D
:1005300000127A000400002009488047094800475B
:10054000FEE7FEE7FEE7FEE7FEE7FEE7FEE7FEE783
:10055000FEE7FEE704480549054A064B70470000E0
:100560000504000889010008D8020020D8080020EE
:10057000D8040020D804002032490143324A1160D7
:10058000704770B5002100230F22C4781CB32E4C95
:10059000246804F4E064C4F5E064C4F30721C1F105
:1005A0000404E3B20A4144789C40E1B284781440E8
:1005B00021430C07210E254C05786155047804F081
:1005C0001F050124AC4005786D11AD0005F1E02553
:1005D000C5F8004109E0047804F01F050124AC408F
:1005E0001B4D0678761145F8264070BD194A0A4021
:1005F0000243154B1B1F1A60704739B1124A121D76
:1006000012680243104B1B1D1A6006E00E4A121DB1
:10061000126882430C4B1B1D1A607047042808D1D6
:100620004FF0E021096941F004014FF0E02211612F
:1006300007E04FF0E021096921F004014FF0E022CA
:10064000116170470000FA050CED00E000E400E0E5
:1006500080E100E080FFFF1F10B504469848844207
:1006600008D10121084600F086FB0021012000F09E
:1006700082FB76E09348844208D10121022000F0F9
:100680007AFB0021022000F076FB6AE08E4884426B
:1006900008D10121042000F06EFB0021042000F0AD
:1006A0006AFB5EE08948844208D10121082000F0FD
:1006B00062FB0021082000F05EFB52E08448844287
:1006C00008D10121102000F056FB0021102000F07D
:1006D00052FB46E07F48844208D10121202000F0EF
:1006E0004AFB0021202000F046FB3AE07A48844291
:1006F00008D10121402000F03EFB0021402000F005
:100700003AFB2EE07548844208D10121802000F098
:1007100032FB0021802000F02EFB22E07048844252
:1007200008D10121801500F026FB0021A01500F062
:1007300022FB16E06B48844208D10121401500F0ED
:100740001AFB0021601500F016FB0AE0664884429F
:1007500007D10121001500F00EFB0021201500F04B
:100760000AFB10BDF0B50A4600210023002400BF9B
:100770003DE0012505FA01F3156805EA03049C42F2
:1007800034D105684F000326BE40B5430560157996
:100790004E00B5400668354305601579012D02D03D
:1007A0001579022D16D185684F000326BE40B5434A
:1007B000856055794E00B54086683543856045684B
:1007C00001268E40B5434560456896798E40B6B2A5
:1007D00035434560C5684F000326BE40B543C5603C
:1007E000D5794E00B540C6683543C560491C10290F
:1007F000BFD3F0BD4FF6FF7101600021017141715F
:100800008171C171704708B54FF480320092009A2F
:100810000A430092009AC261C161009AC261C26932
:100820000092C269009208BD0246002013690B4085
:100830000BB1012000E0002070470146086980B23A
:1008400070470246002053690B400BB1012000E0C5
:10085000002070470146486980B2704701837047A5
:10086000418370470AB1018300E0418370474161D1
:10087000704742694A4042617047F0B50023002446
:100880004D07ED0E02FA05F3CE1000F1200555F8E4
:1008900026504E07F70E0F26BE40B543CF1000F18D
:1008A000200646F82750CE1000F1200555F82650B6
:1008B00045EA0304CE1000F1200545F82640F0BDBE
:1008C000000002400004024000080240000C024008
:1008D000001002400014024000180240001C0240B8
:1008E000002002400024024000280240F94800682D
:1008F00040F00100F74908600020F649083108601F
:10090000F4480068F4490840F2490860F348091DBA
:100910000860F348EF4984310860F0481038091D39
:100920000860EC48006820F48020EA490860002054
:10093000E8490C310860E7498C31086070470021B4
:10094000E44A921C117011460870704710B50146B8
:100950000022002300204A11012A02D1DD4C236825
:1009600008E0022A03D1DB4C7034236802E0D94C42
:100970007434236801F01F02012494401C400CB120
:10098000012000E0002010BD38B5002000900024B8
:10099000002500BF3120FFF7D9FF05460098401C15
:1009A00000900098B0F5A04F01D0002DF2D031207A
:1009B000FFF7CCFF08B1012400E00024204638BD39
:1009C00001460020C34A106820F0F80040EAC10048
:1009D00010607047C349086070470021BD4A7032FB
:1009E00011701170012802D004280AD104E00121FD
:1009F000B84A7032117005E00521B64A70321170A4
:100A000000E000BF00BF7047B7490860704770B58D
:100A1000049C41EA82150126C6EB530645EA0645C9
:100A2000054345EA0465AB4E361D356070BDAD49E2
:100A300008667047820142EA0172A64B84331A604D
:100A40007047A8498866704710B5830143EA01637F
:100A500043EA02739F4C8834236010BDA1490867A4
:100A60007047A049C864704702460020994B08337C
:100A7000186820F0EC6042EA01031843954B0833F4
:100A80001860704702460020924B0833186820F027
:100A9000784042EA010318438E4B083318607047D0
:100AA000014600208B4A0832106820F003000843FA
:100AB0001060704787480830006800F00C007047ED
:100AC00001460020834A0832106820F0F0000843F5
:100AD00010607047014600207E4A0832106820F4FA
:100AE000E05008431060704701460020794A083200
:100AF000106820F4604040EAC10010607047F0B513
:100B0000002100220024022500260223714F08370D
:100B10003F6807F00C0121B1042905D0082937D11D
:100B200005E0724F076036E0714F076033E0694FB0
:100B30003F1D3F68C7F38056664F3F1D3F6807F073
:100B40003F036EB16A4FB7FBF3F7DFF888C10CF1D2
:100B5000040CDCF800C0CCF3881C07FB0CF40CE0A0
:100B6000624FB7FBF3F7DFF86CC10CF1040CDCF853
:100B700000C0CCF3881C07FB0CF4564F3F1D3F68A8
:100B8000C7F301477F1C7D00B4FBF5F7076002E067
:100B9000564F076000BF00BF4E4F08373F6807F051
:100BA000F0010909534F7A5C0768D7404760494F05
:100BB00008373F6807F4E051890A4E4F7A5C47686E
:100BC000D7408760434F08373F6807F46041490BBF
:100BD000484F7A5C4768D740C760F0BD002100F4F9
:100BE0004072B2F5407F0AD13A4A0832116821F4C6
:100BF000F811414A02401143364A08321160354A21
:100C000070321268C0F30B031A43324B70331A6010
:100C100070473549443908607047334940390860A6
:100C2000704736490860704701460020294A8C32D7
:100C3000106820F01F004A1E1043264A8C321060B4
:100C4000704701460020234A8C32106820F4F85087
:100C50004A1E40EA02201F4A8C321060704701464B
:100C600000201C4A8C32106820F4401008431060A9
:100C7000704701460020174A8C32106820F440006B
:100C800008431060704701460020124A8C321068F9
:100C900020F44030084310607047194908607047DD
:100CA00039B10C4A3032126802430A4B30331A60B1
:100CB00006E0084A303212688243064B30331A602D
:100CC0007047F9B1034A343212680243014B34339E
:100CD0001A601CE000380240FFFFF6EA10300024E2
:100CE0000030002000004742800E47420024F400FC
:100CF00000127A0014000020FFFCFF0F5C01474245
:100D0000E01147428F4A126882438E4B1A60704747
:100D100039B18C4A121D126802438A4B1B1D1A609E
:100D200006E0884A121D12688243864B1B1D1A601A
:100D3000704739B1834A0C3212680243814B0C333D
:100D40001A6006E07F4A0C32126882437D4B0C33F6
:100D50001A60704739B17B4A103212680243794BEE
:100D600010331A6006E0774A103212688243754BDE
:100D700010331A60704739B1724A243A126802433C
:100D8000704B243B1A6006E06E4A243A1268824394
:100D90006C4B243B1A60704739B16A4A203A12689A
:100DA0000243684B203B1A6006E0664A203A12680C
:100DB0008243644B203B1A60704739B1614A1C3A48
:100DC000126802435F4B1C3B1A6006E05D4A1C3A06
:100DD000126882435B4B1C3B1A60704739B1594A19
:100DE000143A12680243574B143B1A6006E0554A06
:100DF000143A12688243534B143B1A60704739B15E
:100E0000504A103A126802434E4B103B1A6006E0FB
:100E10004C4A103A126882434A4B103B1A607047A2
:100E200039B1484A1C3212680243464B1C331A60DF
:100E300006E0444A1C3212688243424B1C331A605B
:100E4000704739B13F4A2032126802433D4B20338C
:100E50001A6006E03B4A203212688243394B203345
:100E60001A60704739B1374A243212680243354B51
:100E700024331A6006E0334A243212688243314B2D
:100E800024331A60704739B12E4A2C32126802435B
:100E90002C4B2C331A6006E02A4A2C32126882430B
:100EA000284B2C331A60704739B1264A3032126809
:100EB0000243244B30331A6006E0224A3032126873
:100EC0008243204B30331A607047012808D11D49F6
:100ED0003C31096841F008011A4A3C32116007E0D0
:100EE00018493C31096821F00801164A3C3211606A
:100EF000704739B1134A273A12780243114B273B06
:100F00001A7006E00F4A273A127882430D4B273BAE
:100F10001A7070470B484030006840F080700949F3
:100F200040310860704701460020064A283A12689E
:100F30000A400AB1012000E000207047014926392B
:100F4000087070473438024010B50446FE488442A9
:100F500008D101210846FFF752FF00210120FFF7C9
:100F60004EFF9DE0B4F1804F08D101210846FFF704
:100F700035FF00210120FFF731FF91E0F348844263
:100F800008D101210220FFF729FF00210220FFF7ED
:100F900025FF85E0EE48844208D101210420FFF7B7
:100FA0001DFF00210420FFF719FF79E0E948844282
:100FB00008D101210820FFF711FF00210820FFF7C9
:100FC0000DFF6DE0E448844208D101211020FFF7B5
:100FD00005FF00211020FFF701FF61E0DF48844298
:100FE00008D101212020FFF7F9FE00212020FFF782
:100FF000F5FE55E0DA48844208D101210220FFF7CE
:10100000FEFE00210220FFF7FAFE49E0D5488442A7
:1010100009D101210804FFF7F2FE00214FF48030CE
:10102000FFF7EDFE3CE0D048844209D1012148049D
:10103000FFF7E5FE00214FF40030FFF7E0FE2FE060
:10104000CA48844209D101218804FFF7D8FE002153
:101050004FF48020FFF7D3FE22E0C548844208D138
:1010600001214020FFF7BAFE00214020FFF7B6FE25
:1010700016E0C048844208D101218020FFF7AEFE6F
:1010800000218020FFF7AAFE0AE0BB48844207D176
:1010900001218015FFF7A2FE0021A015FFF79EFE9B
:1010A00010BD00220288A84B98420ED0AC4B98424B
:1010B0000BD0B0F1804F08D0A44B984205D0A44B80
:1010C000984202D0A34B984204D14FF68F731A4036
:1010D0004B881A43A04B984207D0A04B984204D0AB
:1010E0004FF6FF431A400B891A4302804B68C362D4
:1010F0000B880385944B984202D0994B984201D1BA
:101100008B7A03860123838270474FF0FF31416061
:1011100000210180018141808172704701858282B6
:1011200070470A46002101884FF68F73194011431A
:101130000180704741627047C16270470146486A4A
:1011400070470146088D704721B1028842F00202C3
:10115000028004E002884FF6FD731A400280704757
:1011600021B1028842F00402028004E002884FF6B6
:10117000FB731A400280704721B1028842F080025E
:10118000028004E002884FF67F731A4002807047A5
:1011900002884FF6F7731A40028002880A430280E1
:1011A000704702884FF6FF431A40028002880A43C4
:1011B0000280704721B1028842F00102028004E0FF
:1011C00002884FF6FE731A400280704770B5002403
:1011D00000220023058C4FF6FE7635400584028CF4
:1011E0008388048B4FF68F752C40B51E2C400D88DC
:1011F0002C43751E2A408D892A434D882A43524D1F
:10120000A84202D0564DA84213D14FF6F7752A4096
:10121000CD892A434FF6FB752A408D882A434FF625
:10122000FF652B404FF6FF552B400D8A2B434D8A0F
:101230002B43838004838D684563028470BD70B541
:10124000002400220023058C4FF6EF7635400584FC
:10125000028C8388048B48F6FF752C404FF6FF45BF
:101260002C400D884FF6FF7606EA05252C434FF6F5
:10127000DF752A408D8906EA05152A434D8806EA5E
:1012800005152A43304DA84202D0354DA8421DD144
:101290004FF67F752A40CD894FF6FF7606EA051591
:1012A0002A434FF6BF752A408D8806EA05152A4362
:1012B0004FF6FF352B404FF2FF752B400D8A06EAA3
:1012C00085052B434D8A06EA85052B4383800483DD
:1012D0008D688563028470BD70B5002400220023F0
:1012E000058C4FF6FF6635400584028C8388848B1D
:1012F0004FF68F752C404FF6FC752C400D882C4313
:101300004FF6FF552A408D894FF6FF7606EA0525F0
:101310002A434D8806EA05252A430B4DA84202D0F0
:101320000F4DA84238D14FF2FF752A40CD894FF6B4
:10133000FF7606EA05252A434FF6FF352A408D88B9
:1013400006EA05252A4319E0000001400004004098
:1013500000080040000C0040001000400014004055
:1013600000040140004001400044014000480140A9
:1013700000180040001C0040002000404EF6FF75A1
:101380002B404DF6FF752B400D8A06EA05152B43C1
:101390004D8A06EA05152B43838084838D68C563D7
:1013A000028470BD70B5002200230024058C4EF627
:1013B000FF7635400584038C8488828B48F6FF7560
:1013C0002A404FF6FF452A400D884FF6FF7606EA81
:1013D00005252A434DF6FF752B408D8906EA053514
:1013E0002B434D8806EA05352B43FE4DA84202D01B
:1013F000FD4DA84208D14BF6FF752C400D8A4FF6E3
:10140000FF7606EA85152C43848082838D68056407
:10141000038470BD002101804180818081608181D1
:10142000C18101824182704770B5034600200024CB
:101430001846183001258D40ACB21D8CA5431D8483
:1014400009B108290AD100EB610005684FF68F76D3
:10145000354005600568154305600FE00D1FC5F3B5
:101460004E052844056848F6FF7635400560056856
:101470004FF6FF7606EA02263543056070BD4163EC
:10148000704781637047C1637047016470470A46C3
:101490000021018B4FF68F73194011430183704770
:1014A0000A460021018B48F6FF7319404FF6FF737F
:1014B00003EA02231943018370470A460021818B06
:1014C0004FF68F7319401143818370470A460021FC
:1014D000818B48F6FF7319404FF6FF7303EA02232E
:1014E0001943818370470A460021018B4FF6F77339
:1014F00019401143018370470A460021018B4FF2C6
:10150000FF7319404FF6FF7303EA02231943018367
:1015100070470A460021818B4FF6F773194011433B
:10152000818370470A460021818B4FF2FF73194077
:101530004FF6FF7303EA02231943818370470A467B
:101540000021018B4FF6FB73194011430183704753
:101550000A460021018B4FF6FF3319404FF6FF7307
:1015600003EA02231943018370470A460021818B55
:101570004FF6FB7319401143818370470A460021DF
:10158000818B4FF6FF3319404FF6FF7303EA0223B6
:101590001943818370470A460021018B4FF67F7300
:1015A00019401143018370470A460021018BC1F3A2
:1015B0000E014FF6FF7303EA0223194301837047BC
:1015C0000A460021818B4FF67F73194011438183B6
:1015D00070470A460021818BC1F30E014FF6FF735D
:1015E00003EA02231943818370470A460021018CD4
:1015F0004FF6FD7319401143018470470A460021DC
:10160000018C4FF6F77319401143018470470A4665
:101610000021018C4FF6DF7319404FF6FF7303EA88
:1016200002131943018470470A460021018C4FF6CA
:101630007F7319404FF6FF7303EA021319430184C5
:1016400070470A460021018C4FF6FF5319404FF6B0
:10165000FF7303EA02231943018470470A460021FD
:10166000018C4FF2FF7319404FF6FF7303EA022318
:101670001943018470470A460021018C4DF6FF731F
:1016800019404FF6FF7303EA023319430184704790
:1016900030B5002301248C40A3B2048C9C43048405
:1016A000048C02FA01F5ADB22C43048430BD30B590
:1016B000002304248C40A3B2048C9C430484048C37
:1016C00002FA01F5ADB22C43048430BD828B4FF297
:1016D000FF331A408283828B4FF6FF7303EA0123A4
:1016E0001A4382837047F0B50C461546002100224C
:1016F0000026078C4EF6FF7C07EA0C070784818BD7
:10170000028C4FF6FF7707EA043640F6FF47394070
:101710004FF6FF7707EA052739434FF6FF7707EAC9
:101720000337394345F6FF773A4046F480573A434A
:1017300081830284F0BD828B4FF6F3731A4082835B
:10174000828B0A4382837047F0B50C461546002110
:1017500000220026078C4FF6FF6C07EA0C0707846F
:10176000818B028C4FF6FF7707EA04264FF60C7741
:1017700039404FF6FF7707EA03172F4339434FF2FB
:10178000FF573A4046F480773A4381830284F0BDA4
:10179000028B4FF2FF331A400283028B4FF6FF7326
:1017A00003EA01231A4302837047F0B50C4615463D
:1017B000002100220026078C4FF6EF7C07EA0C0779
:1017C0000784018B028C4FF6FF7707EA041640F678
:1017D000FF4739404FF6FF7707EA033739434FF6A3
:1017E000FF7703E0000001400004014007EA0527FD
:1017F00039434FF65F773A4046F010073A4301838A
:101800000284F0BD028B4FF6F3731A400283028B01
:101810000A4302837047F0B50C46154600210022AA
:10182000068C4FF6FE773E400684018B028C4FF605
:101830000C7631407E1C06EA03162E4331434FF6E8
:10184000F576324044F00106324301830284F0BD54
:1018500070B505460C46208850B92389A288618856
:101860002846FFF7D8FFE1882846FFF7CBFF25E0A1
:10187000208804280AD12389A28861882846FFF796
:1018800094FFE1882846FFF783FF17E020880828A7
:101890000AD12389A28861882846FFF755FFE1888D
:1018A0002846FFF748FF09E02389A2886188284677
:1018B000FFF719FFE1882846FFF708FF70BD0021F8
:1018C00001804180012181800021C1800181704718
:1018D0002DE9F04105460C4600260127608808B92D
:1018E000022600E00026A088012801D1022700E09E
:1018F00001272088A0B92389A28861882846FFF79C
:101900008AFFE1882846FFF77DFF23893A46314662
:101910002846FFF74AFFE1882846FFF739FF13E022
:101920002389A28861882846FFF73FFFE18828467F
:10193000FFF72EFF23893A4631462846FFF76BFF13
:10194000E1882846FFF75EFFBDE8F0810146486B5D
:1019500070470146886B70470146C86B7047014667
:10196000086C70470A884B881A438B881A43CB88C7
:101970001A430B891A434B891A438B891A43A0F8DF
:10198000442070470021018041808180C180018115
:1019900041818181704731B1B0F8442042F4004266
:1019A000A0F8442005E0B0F84420C2F30E02A0F8ED
:1019B0004420704721B1828842F00402828004E012
:1019C00082884FF6FB731A408280704721B182886B
:1019D00042F00102828004E082884FF6FE731A40D2
:1019E000828070471AB183890B43838102E0838927
:1019F0008B43838170478182704702460020138A9F
:101A00000B400BB1012000E000207047CA43028266
:101A1000704730B50246002000230024158A05EAED
:101A20000103958905EA010413B10CB1012000E01E
:101A3000002030BDCA430282704741EA0203A0F889
:101A4000483070471AB183890B43838102E0838950
:101A50008B438381704721B1828842F008028280E3
:101A600004E082884FF6F7731A408280704701893C
:101A70004FF6F8721140018170470A460021018932
:101A80004FF68F73194011430181704730B50446FA
:101A90000D4629462046FFF7F0FF208940F0070059
:101AA000208130BD2DE9F04104460D4616461F4603
:101AB000602D06D13B46012231462046FFF775FED8
:101AC00005E03B46012231462046FFF7A4FE2946A9
:101AD0002046FFF7D2FF208940F007002081BDE8B3
:101AE000F08130B50C4600210189C9B24FF6FF756F
:101AF00005EA0325154325432943018130BD2DE91E
:101B0000F04105460E4617469846002443463A469D
:101B100031462846FFF7E5FF2C894FF6F870044060
:101B200044F007044FF68F70044044F070042C8199
:101B3000BDE8F081F0B504460D4616461F463B460B
:101B4000324629462046FFF7CCFF208940F48040EA
:101B50002081F0BD82884FF68F731A408280828880
:101B60000A438280704702894FF6F8731A40028157
:101B700002890A430281704702894FF67F731A4037
:101B8000028102890A4302817047F0B50C4615466E
:101B90001E460021002200230189028B038C4FF690
:101BA000F877394021434FF6FC473A4040F201179D
:101BB0003A434FF6DD773B404FF6FF7707EA0617CB
:101BC0002F433B43018102830384F0BD21B182880E
:101BD00042F08002828004E082884FF67F731A40D0
:101BE00082807047A0F850107047000010B504467E
:101BF000FA48844208D101211020FFF700F90021A2
:101C00001020FFF7FCF857E0F548844209D1012184
:101C10004804FFF7E3F800214FF40030FFF7DEF847
:101C20004AE0F048844209D101218804FFF7D6F840
:101C300000214FF48020FFF7D1F83DE0EA488442CC
:101C400009D10121C804FFF7C9F800214FF4002091
:101C5000FFF7C4F830E0E548844209D101210805C6
:101C6000FFF7BCF800214FF48010FFF7B7F823E02E
:101C7000DF48844208D101212020FFF7C0F800216D
:101C80002020FFF7BCF817E0DA48844209D101218F
:101C90008807FFF7A3F800214FF08040FFF79EF878
:101CA0000AE0D548844207D101214005FFF796F8A4
:101CB00000216005FFF792F810BD2DE9FF470546AA
:101CC0000E460024A14600BFA046B08900B100BF67
:101CD0002C8A24F44054F08804432C82AC8941F2CD
:101CE0000C608443B08831890843718908430443F8
:101CF000AC81AC8A24F44074B0890443AC82684659
:101D0000FEF7FDFEB548854202D0B948854202D1B2
:101D1000DDF80C9001E0DDF80890A88900F400409F
:101D200040B109EBC90000EB091031684900B0FB74
:101D3000F1F707E009EBC90000EB091031688900F1
:101D4000B0FBF1F76420B7FBF0F004012009642137
:101D500001FB1078A88900F4004040B1322000EB6C
:101D6000C800B0FBF1F000F00700044308E03220A7
:101D700000EB08106421B0FBF1F000F00F00044309
:101D80002C81BDE8FF874FF416510160002181804E
:101D9000C18001810C21418100218181704710B5F2
:101DA00002460020108A20F470600B884C88234380
:101DB0008C882343CC8823431843108210BD002114
:101DC000018041808180C180704721B1828942F4C5
:101DD0000052828104E082894DF6FF731A408281AD
:101DE0007047028B02F47F420283028B0A43028314
:101DF000704721B1828942F40042828103E08289E6
:101E0000C2F30E028281704721B1828A42F40062DD
:101E1000828204E0828A4FF2FF731A408282704706
:101E2000C1F308028280704701468888C0F3080029
:101E30007047028A4FF6F0731A400282028A0A4300
:101E40000282704721B1828942F00202828104E05D
:101E500082894FF6FD731A408281704782894FF262
:101E6000FF731A40828182890A4382817047028A05
:101E70004FF6DF731A400282028A0A4302827047D9
:101E800021B1028A42F48042028204E0028A4BF6C7
:101E9000FF731A4002827047818941F001018181FC
:101EA000704721B1828A42F00802828204E0828A6D
:101EB0004FF6F7731A4082827047028BD2B20283C8
:101EC000028B42EA01220283704721B1828A42F0EA
:101ED0002002828204E0828A4FF6DF731A408282F7
:101EE000704721B1828A42F01002828204E0828A25
:101EF0004FF6EF731A4082827047828A4FF6FB7367
:101F00001A408282828A0A438282704721B1828A81
:101F100042F00202828204E0828A4FF6FD731A4088
:101F2000828270471AB1838A0B43838202E0838ADC
:101F30008B4383827047F0B50346002400260025BA
:101F4000002040F66A17B94200D100BF1846C1F31D
:101F5000421401F01F06012707FA06F5012C01D1F2
:101F60000C3004E0022C01D1103000E014301AB122
:101F700007682F43076002E00768AF430760F0BDC2
:101F800002460020B1F5007F00D100BF13880B404E
:101F90000BB1012000E00020704701F40072B2F59F
:101FA000007F00D100BFCA430280704770B502466F
:101FB000002400230025002040F66A16B14200D11B
:101FC00000BFC1F3421501F01F03012606FA03F317
:101FD000012D13D19689334017E000000010014015
:101FE0000044004000480040004C004000500040C9
:101FF0000014014000780040007C0040022D02D116
:10200000168A334001E0968A33400C12012606FA04
:1020100004F41688344013B10CB1012000E0002014
:1020200070BD10B50022002340F66A14A14200D111
:1020300000BF0A1201249440A3B2DC43048010BD07
:1020400010B504466FF00400FEF7E8FAE11704EB60
:102050005171C1F3C701394A11701046007800EB85
:102060004001C1EBC0104FF6FF7101EAC0003449D6
:10207000088010BD0146314A12784A434FF0E023F0
:102080005A6100229A611A46126942F001021A61ED
:1020900000BF4FF0E022106900F001021AB100F415
:1020A0008032002AF5D04FF0E022126922F00102BE
:1020B0004FF0E0231A6100229A6170470146204ADE
:1020C00012884A434FF0E0235A6100229A611A466F
:1020D000126942F001021A6100BF4FF0E02210695C
:1020E00000F001021AB100F48032002AF5D04FF05E
:1020F000E022126922F001024FF0E0231A6100226F
:102100009A61704770B504464FF4077094FBF0F085
:10211000C6B24FF4077094FBF0F100FB114085B29A
:1021200005E04FF40770FFF7C9FF701EC6B2002E1E
:10213000F7D115B12846FFF7C1FF70BD240000207C
:102140002600002000BF704700BF4C4A128802F0F2
:102150004002002AF9D0C2B2484B9A80704710B5AD
:1021600088B0044601210846FEF79AFD012110209F
:10217000FEF7F0FD072209214148FEF77EFB07220A
:102180000A213F48FEF779FB4FF4C0600690022019
:102190008DF81C008DF81D0000208DF81E00012018
:1021A0008DF81F0006A93648FEF7DCFA02940020DD
:1021B000ADF80C00ADF80E00ADF81000ADF814004D
:1021C0000C20ADF8120002A92C48FFF776FD012182
:1021D0002A48FFF7FAFD012240F225512748FFF770
:1021E000AAFE25208DF8040003208DF805008DF847
:1021F000060001208DF8070001A8FEF7C2F908B01B
:1022000010BD10B540F225511C48FFF7CFFE10B3AA
:102210001A48FFF709FEC4B21A48008800F40040CB
:10222000C8B91848008800F4804060B10A2C03D077
:1022300000201449088020E01248008840F4004043
:102240001049088019E00D2C06D10E48008840F492
:1022500080400C49088010E00A480088C0F30D0057
:1022600009490C5407480088401C06490880084664
:102270000088C72801DD0020088010BD0010014043
:10228000000002402C0000207001002000B58BB03F
:1022900001210220FEF704FD01210220FEF749FD85
:1022A000022200213748FEF7E8FA022201213548D0
:1022B000FEF7E3FA0320099002208DF828000020A1
:1022C0008DF82A0001208DF82B0003208DF82900BD
:1022D00009A92C48FEF746FA0020ADF82000ADF819
:1022E0001A0044F61F6007905320ADF8180006A9A5
:1022F0002548FEF7D6FE6020ADF804000120ADF8B9
:1023000006000020ADF808004FF48070ADF814000E
:102310000020ADF810004FF4FA70039001A91A489C
:10232000FEF7DAFF01A91848FFF73CF80821164824
:10233000FFF7EFF808211448FFF7F4F801211248DD
:10234000FEF738FF0BB000BD70B504460D46B4F57E
:10235000FA7F01DA40F2F31440F6C410844200DD43
:10236000441E012D02D0022D0AD104E02146064868
:10237000FFF789F804E021460348FFF786F800BF1D
:1023800000BF70BD000402400004004000B58BB0E7
:1023900001210220FEF784FC01210220FEF7C9FC86
:1023A000022200215E48FEF768FA022201215C4801
:1023B000FEF763FA0320099002208DF82800002020
:1023C0008DF82A0001208DF82B0003208DF82900BC
:1023D00009A95348FEF7C6F90020ADF82000ADF872
:1023E0001A0042F2CF0007900020ADF8180006A9AD
:1023F0004C48FEF756FE6020ADF804000120ADF811
:1024000006000020ADF808004FF48070ADF814000D
:102410000020ADF81000039001A94248FEF75CFFD0
:1024200001A94048FEF7BEFF08213E48FFF771F8BA
:1024300008213C48FFF776F801213A48FEF7BAFE3A
:102440000BB000BD1CB501210220FEF729FCE820DD
:10245000009001208DF8040000208DF80600012076
:102460008DF8070003208DF8050069462C48FEF71B
:1024700079F91CBD10B5FFF7E5FFFFF787FF10BD29
:1024800070B504460D4642F2CF00844201DD044699
:1024900003E02548844200DA0446012D02D0022DD3
:1024A00030D116E0002C07DB012020490860002015
:1024B0001F49C1F8940207E000201C490860012070
:1024C0001B49C1F89402644221461648FEF7DBFF1F
:1024D00019E0002C08DB012014490C3108600020B1
:1024E0001349C1F89C0208E0002010490C31086033
:1024F00001200F49C1F89C02644221460948FEF7B9
:10250000C4FF00E000BF00BF70BD70B504460D46BB
:10251000204601F0B7FA06462946FFF7B1FF70BD25
:10252000000402400004004031DFFFFF8C82404283
:102530000080404200B589B001210420FEF7F9FB7C
:1025400001210820FEF7ACFB02220C21B048FEF767
:1025500094F902220D21AE48FEF78FF94FF4405056
:10256000049002208DF8140003208DF8150001203E
:102570008DF816008DF8170004A9A548FEF7F2F8AB
:102580004FF6FF7007900020ADF81800ADF81A0064
:10259000ADF8200006A99F48FEF783FD0A231A46DE
:1025A00003219C48FFF7F1FA01A8FFF788F90A20F8
:1025B000ADF80C0001A99748FFF74AF947F6FF70FC
:1025C0009449243108601E208DF8000001208DF808
:1025D000010003208DF8020001208DF803006846F9
:1025E000FDF7CFFF8B488C49486147F23050088394
:1025F00001218848FEF7DEFD09B000BD00B589B0B5
:1026000001210820FEF795FB01210846FEF748FB53
:10261000022200218148FEF730F9022201217F4881
:10262000FEF72BF90320049002208DF814000320FC
:102630008DF8150001208DF816008DF8170004A9FB
:102640007648FEF78FF84FF6FF7007900020ADF840
:102650001800ADF81A00ADF8200006A97048FEF782
:1026600020FD0A231A4603216D48FFF78EFA01A8C0
:10267000FFF725F90A20ADF80C0001A96848FFF71B
:10268000E7F847F6FF7066492431086032208DF87C
:10269000000001208DF8010003208DF802000120C8
:1026A0008DF803006846FDF76CFF5D485D494861A1
:1026B00047F23050088301215948FEF77BFD09B0ED
:1026C00000BD10B5044624B1012C07D0022C0BD15B
:1026D00007E0FFF72FFFFFF791FF06E0FFF72AFF64
:1026E00003E0FFF78BFF00E000BF00BF10BD70B537
:1026F0002DED0C8B044600266069406AA0F5FE456E
:10270000FF3D2560208BA84203DA761C208B2D1A12
:1027100006E0208B4042A84202DD761E208B054455
:10272000208B02F0D7FC41EC1B0B284602F0BBFCCF
:1027300041EC1D0B9FED3C0B53EC102B02F0DEFC2B
:1027400041EC1C0B53EC1B2B02F026FB41EC1A0B4B
:102750009FED370B53EC102B02F0D0FC41EC180B23
:10276000304602F0A0FC41EC1C0B9FED2F0B53EC0C
:10277000102B02F0C3FC41EC1B0B9FED2D0B53EC17
:10278000102B02F0BBFC41EC1A0B94ED021BB0EED7
:10279000410AF0EE610A53EC102B02F055FA41ECBD
:1027A000190B53EC182B02F04FFAC4E9020194ED17
:1027B000021BB0EE410AF0EE610A9FED1D1B53ECC7
:1027C000112B51EC100B02F0E7FA41EC180B02F060
:1027D0003BFC206147F6FF706169486294ED020B93
:1027E000BDEC0C8B70BD9FED140B80ED020B002136
:1027F0000160016147F6FF71426951627047002133
:1028000042695162704701464869406A80B2704728
:10281000000C024000080040380200200000024086
:10282000000C004058020020000000000000F03FB3
:102830000000000000807640000000000000000062
:1028400010B58CB004461E230BAA03A9204600F045
:1028500093FD0090009810B101200CB010BD9DF8C0
:102860002C00044400200B900EE0BF489DF82C2063
:1028700050F8221003A800F0E7FC00B908E09DF82A
:102880002C00401CC0B20B909DF82C000728ECD304
:1028900000BF9DF82C0007287BD2DFE800F004057C
:1028A0002A4C7BA6D10000BFB0A000F063FFB0A00F
:1028B00000F060FFBEA000F05DFFC4A000F05AFF72
:1028C000C7A000F057FFCBA000F054FFD3A000F04A
:1028D00051FFDD4800F04EFFDC4800F04BFFDCA06C
:1028E00000F048FFE9A000F045FFF2A000F042FF31
:1028F000D3E09EA000F03EFFFE4800F03BFF00202A
:102900000B900EE0FC4800689DF82C2000EBC20004
:102910004168FAA000F02EFF9DF82C00401CC0B2C8
:102920000B90F548007D9DF82C108842EADC8FA0C2
:1029300000F020FFB1E08DA000F01CFFF14800F096
:1029400019FF00200B901AE0EB4909689DF82C2034
:1029500001EBC20101AB02AA486803A900F032FDF5
:10296000E54800689DF82C1050F8312003A9E6A036
:1029700000F000FF9DF82C00401CC0B20B90DE4818
:10298000007D9DF82C108842DEDC78A000F0F2FE7D
:1029900083E080E075A000F0EDFE0BAA03A92046BD
:1029A00000F0ECFD9DF82C00C8B9694603A800F0C2
:1029B0007EFC0B909DF82C0020B9D8A0009900F067
:1029C000D9FE0EE09DF82C00042801D0022044E737
:1029D000D5A000F0CFFE0120C749C87501E0022054
:1029E0003BE762A000F0C6FE57E060A000F0C2FE28
:1029F0000BAA03A9204600F0C1FD9DF82C00C8B920
:102A0000694603A800F053FC0B909DF82C0020B9F8
:102A1000C9A0009900F0AEFE0EE09DF82C0004283D
:102A200001D0022019E7C7A000F0A4FE0020B2499F
:102A3000C87501E0022010E74CA000F09BFE2CE0DE
:102A40004AA000F097FE0BAA03A9204600F096FDCD
:102A50009DF82C00C8B9694603A800F028FC0B902B
:102A60009DF82C0078B9A449009881F8EC0008463C
:102A700090F8EC0018B1B7A000F07CFE07E0BCA015
:102A800000F078FE03E00220E7E60220E5E637A04A
:102A900000F070FE01E00120DFE600BF0020DCE670
:102AA00010B50121B948FEF7B1FF4FF6FF71B748E5
:102AB000FEF742FB0021B548FEF73CFB00208E49A3
:102AC000C1F8F00010BD10B50121B048FEF795FF28
:102AD000012808D18848D0F8F0004FF6FF7108446B
:102AE0008549C1F8F000A948FEF728FB8249D1F8D2
:102AF000F01008448049C1F8F0000846D0F8F00012
:102B000010BD10B50121A148FEF783FF01280AD1AD
:102B100079490869804700219C48FEF70BFB642136
:102B20009A48FEF709FB01219848FEF783FF10BD84
:102B30007FB504460D4601211020FEF7FAF8ADF8E6
:102B400004500020ADF806000294ADF80C008DF89A
:102B50000E0001A98D48FEF7A4FA01218B48FEF76B
:102B600055FF0122114613E1300000200D0A00003C
:102B70002D2D2D2D2D2D2D2D2D2D2D2D2D2D2D2D85
:102B80002D2D2D2D2D2D2D2D55534D41525420568B
:102B9000332E312D2D2D2D2D2D2D2D2D2D2D2D2D5A
:102BA0002D2D2D2D2D2D2D2D2D2D2D200D0A0000FF
:102BB00055534D41525420686173203720636F6D27
:102BC0006D616E64733A0D0A000000003F3A2020E8
:102BD000202020206765742068656C700D0A000055
:102BE00068656C703A2020206765742068656C7099
:102BF0000D0A00006C6973743A2020206C697374AC
:102C00002074686520617661696C61626C65206D15
:102C10006574686F640D0A0A0000000069643A2058
:102C2000202020206C69737420746865204944203A
:102C30006F6620617661696C61626C65206D657498
:102C4000686F640D0A0A000000560008A8550008C5
:102C500072756E74696D653A312C7475726E206F81
:102C60006E207468652072756E74696D653B302CDA
:102C70007475726E206F6666207468652072756E5A
:102C800074696D653B0D0A0A0000000073656E648F
:102C900020796F757220636F6D6D616E6420776946
:102CA000746820616E2027456E746572272E0D0AA8
:102CB000000000002D2D2D2D2D2D2D2D2D2D2D2DF8
:102CC0002D2D414C49454E54454B206D6F6469662E
:102CD000696564206279207768696C65306C312D94
:102CE0002D2D2D2D2D2D2D2D2D2D2D2D2D2D2D2D14
:102CF000200D0A009C5600087C00002025730D0A58
:102D0000000000005856000825732069642069738C
:102D10003A0D0A3058253038580D0A004845583ABF
:102D2000305825580D0A0000686578206469737072
:102D30006C6179210D0A00004445433A256C750DFC
:102D40000A00000064656320646973706C61792116
:102D50000D0A000052756E2054696D652043616C48
:102D600063756C6174696F6E204F4E0D0A00000030
:102D700052756E2054696D652043616C63756C619A
:102D800074696F6E204F46460D0A00000010004027
:102D9000F648FEF727FE0121F448FEF70BFA36202D
:102DA0008DF8000003208DF801008DF8020001204D
:102DB0008DF803006846FDF7E4FB7FBD10B50446BF
:102DC00004EBC40000EB04100122C2EB800081B2CE
:102DD0004FF47A70FFF7ACFE0120E549C87510BDCD
:102DE00030B595B0054613AB12AA09A9284600F0E4
:102DF000E9FA044614B1204615B030BD0020149005
:102E000026E0DB4909689DF8502001EBC20113ABB5
:102E100011AA486801A900F0D5FA04460CB1204671
:102E2000EAE709A901A800F00FFA60B99DF844008B
:102E30009DF84810884201DD0220DDE79DF8500032
:102E4000CB4988750AE09DF85000401CC0B2149030
:102E5000C748007D9DF850108842D2DC00BFC448AE
:102E6000007D9DF85010884201D10420C4E714A9C8
:102E7000284600F0F4FB04460CB12046BCE79DF860
:102E80005000BB4948750020B6E72DE9F0419AB0E3
:102E9000B748847D007DA04202DC1AB0BDE8F08115
:102EA000B349096801EBC40106AB07AA486808A941
:102EB00000F088FA08A9AFA000F05CFC002644E00E
:102EC000AB48008B0121B1400840D8B12221ABA012
:102ED00000F050FC304600F0B5FBA54924314718FE
:102EE0003946A7A000F046FC2221A4A000F042FC35
:102EF000304600F0A7FB9E492431084410A941F850
:102F0000260018E0304600F09DFB9949243108580E
:102F100010A941F826009648C07D30B910A850F895
:102F2000261098A000F026FC05E010A850F8261006
:102F300095A000F01FFC9DF81C00401EB04202D07E
:102F400093A000F017FC701CC6B29DF81C008642CE
:102F5000B6DB90A000F00EFCFFF7A2FD8448407D98
:102F60000B280DD2DFE800F0060D151E27323F4E6C
:102F70005F7287007E49096851F834008047054632
:102F800090E07B4A126852F8341010988847054642
:102F900088E0774B1B6853F83420DDE91001904737
:102FA00005467FE0724F3F6857F8343010A807C8D5
:102FB0009847054676E0DFF8B8C1DCF800C05CF859
:102FC000347010A80FC8B84705466BE01498DFF8B6
:102FD000A0C10090DCF800C05CF8347010A80FC8E5
:102FE000B84705465EE0DDE91401DFF884C1CDE9AC
:102FF0000001DCF800C05CF8347010A80FC8B847B6
:1030000005464FE0DDE914121698DFF864C1CDE9FA
:1030100000120290DCF800C05CF8347010A80FC8F1
:10302000B84705463EE0DDE91423DDE91610DFF878
:1030300040C1CDE90023CDE90210DCF800C05CF806
:10304000347010A80FC8B84705462BE0DDE91523FA
:10305000DDE91710CDE90123CDE903101498DFF85D
:1030600010C10090DCF800C05CF8347010A80FC8E4
:10307000B847054616E0DDE91623DDE91810CDE96D
:103080000223CDE90410DDE91401DFF8E4C0CDE945
:103090000001DCF800C05CF8347010A80FC8B84715
:1030A000054600BF00BFFFF70EFD9DF81800012880
:1030B0000CD12F48C07D20B9294637A000F05AFB1B
:1030C00007E0294636A000F055FB02E033A000F0EF
:1030D00051FB274890F8EC0088B12548D0F8F00063
:1030E0000A21B0FBF1F201FB12072148D0F8F000F1
:1030F000B0FBF1F83A4641462CA000F03BFB00BF84
:10310000CBE670B53148008800F4004000282CD090
:103110002E48057800202E494855154881682C48CE
:10312000884704461CB91249C868804776E0284899
:10313000FFF786FB0546012D00D02C46002C6DD0F4
:10314000012C06D0022C08D0032C0AD0042C64D108
:103150005FE020A000F00EFB5FE022A000F00AFB81
:103160005BE025A000F006FB57E05AE000100040AD
:103170007C0000200D0A2573280000002563000054
:1031800025730000256C750030582558000000009C
:103190002C000000290000003D256C753B0D0A0045
:1031A0003D305825583B0D0A0000000046756E63FF
:1031B00074696F6E2052756E2054696D653A25648E
:1031C0002E2531646D730D0A000000002C000020D4
:1031D000700100206D6574686F64206572726F7293
:1031E000210D0A00706172616D65746572206572EF
:1031F000726F72210D0A0000746F6F206D75636825
:1032000020706172616D6574657273210D0A000032
:1032100004E007A000F0AEFA00BF00BF002009499B
:10322000088070BD01460868704701607047000063
:103230006D6574686F64206E6F7420666F756E6460
:10324000210D0A002C00002002460AE010780B78BD
:10325000984201D001207047107800B902E0521C5A
:10326000491CF3E700BF0020F5E706E002780A708A
:10327000027802B902E0401C491CF7E700BF704722
:103280000146002005E00A7802B903E0421CD0B2F2
:10329000491CF8E700BF704710B50246012000E066
:1032A00050430B1EA1F10104E1B2F9D110BD2DE98B
:1032B000F04307460E4600254FF00A083C46002022
:1032C00030601FE02078392802DC207830280ADAC4
:1032D0002078462802DC2078412804DA2078582813
:1032E00009D1012D07D12078412801DB4FF01008CA
:1032F000681CC5B205E0207800B904E00120BDE8F3
:10330000F083641CDEE700BF3C46B8F1100F0FD11C
:10331000032D01DA0220F2E72078302806D1607808
:10332000582803D1A41CA81EC5B204E00320E6E778
:103330000DB90420E3E71BE00DB1681EC5B220788B
:10334000392806DC2078302803DB2078A0F130090A
:1033500002E02078A0F1370929464046FFF79CFF9C
:10336000316809FB00103060641C207800B900E06F
:10337000E2E700BF0020C2E710B50446002010704D
:103380000BE020780870641C491C1078401C1070F9
:103390001078984201DB012010BD2078202802D04F
:1033A00020780028EDD10020087000BFF4E7014626
:1033B000491C00E0491C0878202801D10029F9D1D6
:1033C000087870472DE9FF4F85B080468946002771
:1033D000002004900390012002904FF0000B002584
:1033E00044461DE02078202816D005F07F000528EF
:1033F00012DA0DB945F0800505F07F00042803D1ED
:1034000020782A2800D00EE0207805F07F010DF802
:103410000100681CC5B202E0852D00D103E0641CE8
:1034200020780028DED100BF8DB1002005F07F019B
:103430000DF80100CBA16846FFF706FF18B900217F
:103440000898017002E001210898017000254FF0F2
:10345000000A444614E0641C0AF1010000F0FF0A6F
:103460002078202802D020782A2809D12046FFF78A
:103470009EFF0646282E03D02A2E01D0CDF810A09C
:103480002078282802D020780028E4D144460498E7
:1034900010B10498401C04444FF0000A002654E088
:1034A000207810B94FF0010A50E02078282803D185
:1034B00016B9781CC7B213E02078292808D13EB984
:1034C00017B1781EC7B201E04FF0010A47B93DE0DD
:1034D0002078222804D10EB9012000E00020064601
:1034E00047B9207820282FD0207889F8000009F1EA
:1034F000010929E020782C2804D101200290681CC1
:10350000C5B214E02078202811D0207828280ED0C9
:103510004DB9BBF1050F06DA20780DF80B000BF161
:10352000010000F0FF0B0298401CC0B20290012F76
:103530000AD10298022807D10298401CC0B202901A
:103540000398401CC0B20390641CA9E700BF039815
:10355000012809D100200DF80B0082A16846FFF771
:1035600073FE08B9002003900799039808700020A3
:1035700089F80000504609B0BDE8F08FF0B5034669
:103580001546002000220026002455E01F782C2F2D
:1035900001D104B901221F78292F01D01F780FB95A
:1035A00004B94AE0002E34D11F78302F02DB1F7897
:1035B000392F11DD1F78612F02DB1F78662F0BDD9D
:1035C0001F78412F02DB1F78462F05DD1F78582F0B
:1035D00002D01F78782F0CD102B12EE01F78612F16
:1035E00003DB1F78203F0F7001E01F780F70491C2C
:1035F0001FE01F78222F04D102B11EE00126012412
:1036000017E01F78202F14D01F782C2F11D0FF2601
:1036100013E01F78222F00D1002402B10DE044B145
:103620001F785C2F02D15B1C471CF8B21F780F700B
:10363000491C471CF8B25B1CA8E700BF00270F70AD
:103640002E70F0BD02460020002105E0474B5B5C78
:103650000344D8B24B1CD9B29142F7DB70472DE935
:10366000F043B5B005460F460024002604E00021D3
:103670003E488155701CC6B20A2EF8DB06E06D1C70
:10368000287818B9012035B0BDE8F08328782828BB
:10369000F5D16D1C61E034AA69462846FFF76EFF3C
:1036A000064635449DF8D00020B1012827D0FF28D8
:1036B0004CD149E09DF8000000B333A96846FFF7FC
:1036C000F6FD06460EB10220DDE72046FFF7BAFF01
:1036D00026490A31339A0A50A1F12400008B0121B6
:1036E000A140884321491A39088304211F48015504
:1036F000601CC4B20A2C01DD0320C4E726E0684642
:10370000FFF7BEFD401C00F0FF082046FFF79AFFC0
:1037100016490A3100EB010949466846FFF7A5FD45
:1037200012481A38018B0120A040014388B20F498A
:103730001A3908830D4800F80480601CC4B20A2CB2
:1037400001DD03209FE701E002209CE700BF28780D
:10375000292801D0287800B900E09CE700BF3C7020
:10376000002090E7766F696400000000960000205A
:10377000704700000FB4044910B503AA029800F086
:1037800015FC10BC5DF814FB2800002070B5044641
:1037900085690068C10601D5302600E02026C007F3
:1037A00007D070BDD4E9012130469047206A401C03
:1037B00020626D1EF6D570BD70B50446856900782F
:1037C000C00707D170BDD4E9012120209047206AAD
:1037D000401C20626D1EF6D570BD70B50C460546C6
:1037E000012A05D02878800600D5EA69002302E086
:1037F000012305E05B1C934202D2E05C0028F9D172
:10380000A869E618C01AA861286A184428622846E0
:10381000FFF7BCFF04E0D5E9012114F8010B904744
:10382000B442F8D32846FFF7C7FF70BD2DE9F04139
:103830000646002410687529314616A510D0AFF34E
:103840000080002802DA404213A507E031688A07A9
:1038500001D512A502E0490704D511A5012401E014
:10386000AFF3008000210A2206F1240709E0B0FB33
:10387000F2FCB0FBF2F302FB1C0030307854184627
:10388000491C0028F3D123462A463046BDE8F041C2
:1038900000F00EB9000000002D0000002B00000019
:1038A0002000000070B504460D4621461068AFF3B5
:1038B00000802188090502D50F4A7A4402E00E4AA9
:1038C0007A440E32002104F1240305E000F00F06D3
:1038D0000009965D5E54491C0028F7D1207800232A
:1038E000000704D5702D02D009B102231132204601
:1038F000BDE8704000F0DCB81C1C00002DE9F05F52
:10390000894604464FF0000ADFF874B1FB44C0F862
:1039100020A02046E1688847002874D0252806D0DA
:10392000D4E901219047206A401C2062F1E700267B
:103930005F462046E16888472028054607DB312D91
:1039400005D2781910F8200C08B10643F1E7B0074A
:1039500001D526F00406C4F81CA00027C4F818A05E
:103960002A2D09D0284601F03BF938B304EB87082B
:10397000303DC8F8185019E059F8041B204604EBF4
:1039800087029161E1688847012F054618D1E069F7
:10399000002820DA26F020061DE0D8F8180000EBF9
:1039A000800005EB40003038C8F818002046E16878
:1039B0008847054601F014F90028EED1012F0AD0FE
:1039C0002E2D08D12046E16888477F1C0546022F2E
:1039D00046F02006C4DBA069002803DA404246F026
:1039E0000106A061F00701D026F010066C2D0BD067
:1039F000682D09D04C2D39D06A2D35D0742D35D095
:103A00007A2D33D016E038E0E1682F46204688470B
:103A1000B842054609D16C2F26D04FF48060E1688A
:103A2000064320468847054604E06C2F1AD04FF421
:103A3000807006430DB3A5F14100192802D8203546
:103A400046F400664A462946204626604E46FCF764
:103A5000F5FB80B101280BD0F61D26F0070000F120
:103A6000080956E74020E4E78020D8E70020D6E7A1
:103A700006F104094DE7284652E7206ABDE8F09FA9
:103A8000F21B000070B5064600F00EF8046805460B
:103A900030460A22002100F09BFA2C6070BD70476E
:103AA0007047704770470000004870477802002058
:103AB0002DE9F0470D4699469246044600F1240848
:103AC0000168880604D5E06921F01001216000E05A
:103AD0000120A84201DD471B00E00027A1697A19F7
:103AE00002EB0900081AA0612078C00602D4204623
:103AF000FFF74CFE002608E0D4E901211AF8060081
:103B00009047206A401C761C20624E45F4DB2078EA
:103B1000C0060AD52046FFF739FE06E0D4E90121A8
:103B200030209047206A401C2062381EA7F1010710
:103B3000F4DC07E0D4E9012118F805009047206A79
:103B4000401C2062281EA5F10105F3DC2046FFF78A
:103B500033FE2078000602D50220BDE8F087012060
:103B6000FBE770472DE9FF4F0C461E464FF0FF372D
:103B70008BB0D2E90001DDF860800A908A46C1F37B
:103B80000A5505B93D46002108464FF00000BAF13C
:103B9000000F00F4400005DA00EB80004FF4400114
:103BA00001EA50004FEA9059B9F1010F00DDB94622
:103BB0000A9850EA4A000ED044F61050A5F2FF359C
:103BC00045432F14B8F1000F1ED07542291E1EDD8B
:103BD000C9F100021CE0B8F1010F4FF0000001D064
:103BE000302103E0F24305E02154401CB042FBDBEE
:103BF00030460022002121540B99C1F80880C1E908
:103C000000200FB0BDE8F08FBD1B6D1CDEE74A46FB
:103C100000DA694206A800F011FB06AB93E8070042
:103C200003AB83E8070050460A9900F0F9FB8DE8E2
:103C30000700A0F500501F3800900398002D0ADD02
:103C400042F21F014A460844002303A90390684634
:103C500000F062FE09E0A0F500504A461F3800233C
:103C600003A90390684600F06CFE8DE8070000048D
:103C7000000C03D04FF0FF30410800E01046B8F1CF
:103C8000000F03D00022009215461EE0751E05D4D9
:103C900000F0E6F9303262556D1EF9D5B3460122C7
:103CA000084302D000227F1C04E02078302801D194
:103CB00000227F1E002A099784D01DE0112D07DA0B
:103CC00000F0CEF9303262556D1C50EA0102F5D198
:103CD000084302D00098C8B10EE00021681E05E03C
:103CE000235C625C63542254401E491C8142F7DB12
:103CF000AB46A81B401E0990002004F80B000B984F
:103D0000099AC0F80880C0E9002B7AE711264FF025
:103D1000000857E72DE9F04F88460446D21D22F0EF
:103D2000070191B0D1E90001CDE90A0100F040FF9F
:103D300002460B98C00F01D02D2007E020688107B4
:103D400001D52B2002E0202101EAC000032A0990BE
:103D500001D0072A05DB03464146204600F0DEF984
:103D60000BE12078800601D5E06900E00620B8F17B
:103D7000650F814606D0B8F1660F18D0B8F1670F0D
:103D800070D131E00020B9F1110F009001DB112357
:103D900001E009F101030AAA01A90CA8FFF7E2FE5C
:103DA000DDE90C70002609F10105834647E001209A
:103DB0004B4600904FF000470AAA01A90CA8FFF754
:103DC000D1FEDDE90DB00C995D46002610B909F170
:103DD00001000D18B9EB050003D4C0F1FF3609F15D
:103DE0000105A5EB09002BE0B9F1010F01DA4FF055
:103DF00001090020B9F1110F0090484601DD11239F
:103E000000E003460AAA01A90CA8FFF7ABFEDDE912
:103E10000C704D4600268346207800070AD4AB4537
:103E200000DA5D4601A8012D04DD411911F8011CDD
:103E3000302907D04F4502DA17F1040F04DA0120C8
:103E400082460FE06D1EEEE7002F02DCED1B3E44C4
:103E500003E0781CA84200DD7D1CB81B00F1010ABC
:103E60004FF000472078000703D4AA4501DB4FF04C
:103E7000FF3A0021B7F1004F0DF143088DF84310D0
:103E800024D002202B23002F01DA7F422D230A2188
:103E9000021EA0F1010000DC5FB197FBF1FC97FB73
:103EA000F1F201FB1C7C17460CF1300C08F801CD37
:103EB000EEE7A8F1010003702188090501D545212D
:103EC00000E06521A0F1010800F8011C09980FA984
:103ED000A1EB0807FF1D00B10120411901EBEA70B9
:103EE000A1693844081A401EA0612078C00602D497
:103EF0002046FFF74BFC099828B1D4E901219047EF
:103F0000206A401C20622078C00622D52046FFF798
:103F10003DFC1EE0002E04DBB34502DD01A8805D00
:103F200000E03020D4E901219047206A401C206243
:103F3000761CAAF101005FEA000A0AD100F08CF8B1
:103F4000C0680168405CD4E901219047206A401CA8
:103F50002062281EA5F10105DCDC07E0D4E901217F
:103F600018F8010B9047206A401C2062381EA7F108
:103F70000107F3DC2046FFF71FFC032011B041E6E8
:103F800010B5436913B1AFF3008001E0FFF725FCE2
:103F9000012010BD127800F124010A7000224A703D
:103FA0000122EDE711684FF0FF32E9E7074B70B5EA
:103FB0000D467B4400F09FF80446284600F0B0F917
:103FC00010B14FF0FF3070BD204670BD93E1FFFF90
:103FD0002DE9F04791460F4680460446002614F826
:103FE000015B2DB100F030F80068405DC007F6D1EC
:103FF0002B2D02D02D2D18D0641E4A46394620465E
:1040000000F0CCF827B13968A14201D1C7F800808F
:104010004FF0020471050BD54042002803DDFFF785
:1040200043FD0460A007BDE8F08746F48066E4E73E
:104030000028F8DAFFF738FD04606FF00040F2E77F
:10404000004870477802002010B500F005F8001D08
:1040500010BD00BFC90B0000004870479802002047
:1040600030B5B0F10A024FEA900E71F100034EEA4A
:10407000817EB0EB0E0061EB91014FEA101E4EEA1B
:10408000017E10EB0E0041EB11114FEA102E4EEAAB
:10409000016E10EB0E0041EB11214FEA104E4EEA7B
:1040A000014E10EB0E0041EB1141401841F10001AF
:1040B0004FEAD00040EA41704FEAD10110EB800591
:1040C0004FEA810444EA907444EB01046D1944EB17
:1040D0000404521BA3414FF0000348BF0A3200D52D
:1040E00030BD401C41F1000130BD000001694A1C97
:1040F00002610878704700B58FB0CDE90131002129
:10410000059105497944CDE9031011466846FFF74A
:10411000F5FB0FB000BD0000E5FFFFFF2DE9F0410A
:104120001F46044603260168072A01F4006004DBE9
:1041300008B116A505E016A503E008B115A500E035
:1041400015A521F010002060A069C01EA0610FB16C
:10415000401EA0612046FFF719FB4FB1D4E90121B1
:1041600038469047206A401C2062C01C206206E04E
:10417000206AFAE7D4E9012115F8010B9047761E71
:10418000F8D22046FFF718FBBDE8F0814E414E0003
:104190006E616E00494E4600696E66002DE9F05F63
:1041A000824615468B4600270AF10104B94600787D
:1041B000302801D09DB113E014F8010B01277828B5
:1041C00003D0582801D045B10AE00DB1102D07D118
:1041D000002714F8010B102502E0082500E00A254D
:1041E0000026B0460EE005FB080005FB06F101279E
:1041F0001FFA80F801EB1046B6F5803F00D3B946B0
:1042000014F8010B294600F0B4F80028EBDABBF1F2
:10421000000F05D00FB1641E00E05446CBF80040FB
:10422000B9F1000F06D0FFF73FFC02210160C81E64
:10423000BDE8F09F48EA0640FAE700002DE9F047A4
:10424000814616468AB0354878440DC88DE80D0081
:1042500032487844801C03AC0DC884E80D0041F658
:104260009B300844372190FBF1F290FBF1F5A5F16A
:10427000800501FB12041B3C02D56442012000E0D2
:104280000020DFF898A080460027FA44AAF1BE0A71
:104290000EE0E0070AD03246684607EB47010123EB
:1042A0000AEB810100F04DFB8DE8070064107F1CD4
:1042B000002CEED1194F7F44AE3F19E0E80715D02E
:1042C00007EB04100DF1180A90E80E008AE80E00C2
:1042D000C068F04201D1981908903246012306A91E
:1042E00003A800F02EFB03AB83E807006D10641CED
:1042F000002DE3D14FF0010332466946B8F1000FBB
:1043000003A802D000F008FB01E000F01AFBC9E9A5
:104310000001C9F808200AB0BDE8F0874413000086
:10432000007B00F0800070477546FFF789FEAE46BF
:1043300005006946534620F00700854618B020B5B1
:10434000FCF708F9BDE820404FF000064FF00007E9
:104350004FF000084FF0000B21F00701AC46ACE82D
:10436000C009ACE8C009ACE8C009ACE8C0098D469A
:1043700070473A2800D2303820F02002412A01D379
:10438000A2F13700884201D34FF0FF30704710B5DB
:104390000446AFF300802046BDE81040FBF77FBF26
:1043A0004FF0013C50F8042B51F8043B9A4221D1C4
:1043B000A2EB0C03934313EACC1317D150F8042B50
:1043C00051F8043B9A4215D1A2EB0C03934313EA34
:1043D000CC130BD150F8042B51F8043B9A4209D16D
:1043E000A2EB0C03934313EACC13DBD04FF0000095
:1043F000704700BFD01A01BAB1FA81F101F018017B
:1044000022FA01F0CB40C1F12001DBB2C0B2C01AE8
:104410002CFA01F3D11A914311EAC311E6D1704786
:104420005FEA400C08BF91F0000F4FEA8C234FEA7F
:10443000C12243EA51514FEA1C5018BF00F5F04029
:104440004FEA300018BF41F000415FEA6C5C00F0B9
:104450002980BCF1FF3F08BF40F080407047130C3B
:1044600006BF12044FF0100C4FF0000C130E04BFE7
:1044700012020CF1080C130F04BF12010CF1040C12
:10448000930F04BF92000CF1020CD30F04BF520033
:104490000CF1010C11464FF00002A0F11F00A0EB3F
:1044A0000C00704711F0004F08BF704731F0004119
:1044B0003FF4D5AF0B0C06BF09044FF0100C4FF0C2
:1044C000000C0B0E04BF09020CF1080C0B0F04BF0B
:1044D00009010CF1040C8B0F04BF89000CF1020CD4
:1044E000CB0F04BF49000CF1010CCCF12003A0EB71
:1044F0000C0022FA03F302FA0CF241EA030100F184
:104500000100704720F07F4C80EA030023F07F47D2
:10451000ACEB070303F57C5300F0004003F1FF030D
:104520002DE980494FEA154B09B44FEA144325EAB7
:104530000B4E24EA03480FF2042606EB1327490822
:104540003E785FEA320203FB0667C7F5000707FB08
:1045500006F64FEA54374FEAD64606F1020607FB45
:10456000066CCCF1005C4FEA1C472CEA074C07FBB9
:1045700006F40CFB06F504EB15464FEA961634BF1D
:1045800000204FF000404FEAD13706FB07FC4FEA0E
:104590001C4C0CFB0BF7D21B03FB0CF761EB070168
:1045A0000CFB0EF7B0EB074072EB17420CFB08F761
:1045B00034BFA2EB0742B2EB074261EB17414FEA6F
:1045C0000C444FEA910706FB07FC4FEA1C4C0CFB1E
:1045D0000BF7B0EBC74072EB573203FB0CF734BF5D
:1045E000A2EBC742B2EBC74261EB57310CFB0EF7AF
:1045F000B0EBC70072EB57720CFB08F734BFA2EBAD
:10460000C702B2EBC70261EB5771039F4FEA8161AA
:1046100041EA921104EBCC044FEAD1374FEA8262AF
:1046200006FB07FC42EA90124FEA80604FEA1C4CFE
:104630000CFB0BF7D21B03FB0CF761EB07010CFB28
:104640000EF7B0EB074072EB17420CFB08F734BFD4
:10465000A2EB0742B2EB074261EB17414FEA8C55E0
:104660004FEA910704EB9C2406FB07FC4FEA1C4C25
:104670000CFB0BF7B0EBC74072EB573203FB0CF7A8
:1046800034BFA2EBC742B2EBC74261EB57310CFB20
:104690000EF7B0EBC70072EB57720CFB08F734BF94
:1046A000A2EBC702B2EBC70261EB577115EB4C25C9
:1046B0004FEA816141EA92114FEA82624FEAD137B3
:1046C00042EA901206FB07FC44F100044FEA8060C6
:1046D0004FEA1C4C0CFB0BF7D21B03FB0CF761EBF6
:1046E00007010CFB0EF7B0EB074072EB17420CFB17
:1046F00008F734BFA2EB0742B2EB074261EB174168
:1047000015EB1C154FEA813141EA92414FEA8232A2
:1047100042EA90424FEA80304FEA0C7644F10004BE
:1047200048EA03434EEA0B484FF0000EB2EB080C88
:1047300071EB030724BF624639464EEB0E0E4FF075
:10474000000B0018524149414BEB0B0BB2EB080C2C
:1047500071EB03077BF1000B24BF624639464EEB39
:104760000E0E4FF0000B0018524149414BEB0B0B62
:10477000B2EB080C71EB03077BF1000B24BF624620
:1047800039464EEB0E0E51EA020718BF46F00106FD
:1047900016EB0E7655F1000254F1000103D5BDE889
:1047A0008901BDE80088BDE88901BDE80048B61967
:1047B000524141EB0101A3F10103704780807F7EEC
:1047C0007D7C7B7A79787776767574737271717087
:1047D0006F6E6E6D6C6C6B6A6A6968686766666539
:1047E0006464636362616160605F5F5E5E5D5D5CC7
:1047F0005C5B5B5A5A595958585757565655555538
:104800005454535352525251515050504F4F4F4E97
:104810004E4D4D4D4C4C4C4B4B4B4A4A4A494949E5
:104820004848484747474746464645454544444427
:10483000444343434342424242414141002B9C4650
:1048400030D477002BD01CB54FEA370703B44FF0B4
:1048500010004FF01001BAF1000F06D0BCF1000FAC
:10486000DCBF40F0080040F008014FF000000FBC32
:10487000BDE810400BF1010BBBF1010F08BF5FEA6F
:10488000170722BF12F1010211F101014FF000419F
:1048900043F1000300F0004043EA00007047F9D301
:1048A0005708D0E746EA064613F1400F4FEA16468E
:1048B0001FDD13F1200FDFBF16430A46002120330E
:1048C0005B42BED0C3F1200746EA064602FA07F76C
:1048D0004FEA164646EA0706C3F1200722FA03F21A
:1048E00001FA07F721FA03F14FF0000342EA070249
:1048F000A7E746EA020646EA06464FEA164646EAB1
:104900000106BCBF46EA0646360C4FF000034FF0E6
:1049100000024FF0000194E72DE9804C9A4693463F
:1049200070B491E8380007C831EA400C48BF34EA57
:10493000430C03D5FFF7E6FDFFF780FFF0BCBDE8B1
:10494000008C2DE9804C9A46934670B491E838006B
:1049500007C810F0804F08BF13F0804F03D100F05C
:1049600005F8FFF76BFFF0BCBDE8008C20F07F4737
:1049700080EA030023F07F4C07EB0C03A3F57C5384
:1049800000F00040A3F1FE0392F0000F00F0B380AE
:1049900095F0000F00F077802DE901494FEA1140B2
:1049A0004FEA144621EA004800FB06FC24EA0647C9
:1049B00008FB06F607FB08F800FB07F718EB0648AC
:1049C0004CEB164C4FEA124B18EB07484FEA1546D2
:1049D0004CEB174022EA0B4E0BFB06FC25EA064780
:1049E0000EFB06F607FB0EFE0BFB07F71EEB064E53
:1049F0004CEB164C4FF000061EEB074E4CEB174BE2
:104A000018EB0B0840F1000018EB0E0B58EB0008F8
:104A100040F100008F1A4FF000013CBFC943661BF4
:104A200014BFB5EB040C00213CBFC943F61B4FEA91
:104A300017444EEA8E0E27EA04454FEA1C4704FB52
:104A400007622CEA074C05FB07F70CFB05F604FB95
:104A50000CFC16EB074642EB174216EB0C4642EBFA
:104A60001C421BEB060658EB0202414146EA9E0639
:104A700001D5BDE80189B619524141EB0101A3F10D
:104A80000103BDE801894FEA14454FEA114724EAC2
:104A9000054621EA074C05FB07F406FB07F70CFB6C
:104AA00006F105FB0CFC11EB074144EB17444FEA00
:104AB000124711EB0C4144EB1C4422EA074C05FB66
:104AC00007F206FB07F70CFB06F605FB0CFC16EBE2
:104AD000074642EB174216EB0C4642EB1C456A18A0
:104AE00054F1000148BF7047B619524141EB010132
:104AF000A3F10103704795F0000F37D04FEA114240
:104B00004FEA144721EA024624EA074C02FB07F168
:104B100006FB07F70CFB06F402FB0CFC14EB074446
:104B200041EB17414FEA154714EB0C4441EB1C4194
:104B300025EA074C02FB07F506FB07F70CFB06F618
:104B400002FB0CFC16EB074645EB174516EB0C4633
:104B500045EB1C42121951F1000148BF7047B619CC
:104B6000524141EB0101A3F1010370474FEA1445A3
:104B70004FEA114724EA054621EA074C05FB07F1F5
:104B800006FB07F70CFB06F24FF0000605FB0CFCDA
:104B900012EB074241EB174112EB0C4251EB1C4167
:104BA00048BF7047921841EB0101A3F10103704720
:104BB00003B401984100009850EAC12018BF0420B6
:104BC0004A0D18BF40F0010040F2FF72B2EB515F96
:104BD00008BF40F00200012808BF052002B070475E
:104BE00030380A2801D201207047002070470000A9
:104BF00010B500290AD00878002807D00548784465
:104C0000FFF7CEFB002801D0002010BD02487844F9
:104C100010BD0000F60B0000EE0B000010B50029DF
:104C20000AD00878002807D005487844FFF7B8FB79
:104C3000002801D0002010BD0248784410BD0000BB
:104C4000E60B0000DE0B000010B591EA030F48BF31
:104C500083F0004300F15883841A71EB030C05D2F2
:104C6000121943EB0C03001B61EB0C01DFF824E18C
:104C70004FEA1154A4EB135C1EEA430F18BF9EEADF
:104C8000445F73D023EA0E03DCF1200E21EA0451C5
:104C900043F4801332D322FA0CFE10EB0E0023FAF9
:104CA0000CFE41EB0E01CCF1200E03FA0EFE10EBD0
:104CB0000E0051F10001B1F5801FCCF1200E32D26F
:104CC00001EB045112FA0EF2BDE8104058BF7047D4
:104CD000401C38BF5FEA420218BF7047002814BF6B
:104CE00020F0010041F100014FEA410313F5001FDC
:104CF00038BF7047A1F1C04100F0F8BA012A43EB78
:104D00000302ACF1200CDCF11F0E32BF4FF0000E9D
:104D100023FA0CF310EB030041EB0451B4EB115FE9
:104D2000D0D0A1EB045101F5801149085FEA3000B1
:104D300001EB04510ED350F1000038BF12FA0EFE01
:104D400008D1BDE81040C9E7401C38BF5FEA420205
:104D5000CAD1C3E7BDE810404FEA410313F5001F75
:104D600038BF7047A1F1C04100F0C0BA9EEA445F6D
:104D700008D011EA5E0FBDE8104004BF01F0004109
:104D800000207047BDE8104070B500F061FA00BF28
:104D900064FBBE3E0000E0FF2DE9C04130B4DFF807
:104DA000A0C23CEA111418BF3CEA131400F0EC80D6
:104DB00081EA03051CEA111444EAD57418BF1CEA01
:104DC000131500F0C780A4EB05044FF0004545EA39
:104DD000C12145EAC32341EA505143EA525304F149
:104DE0007F74994204F500344FEAC0204FEAC22292
:104DF00008BF904200F09C804FEA13650FF2401606
:104E0000765D4FEA134506FB05F7C7F1807706FB91
:104E100007F74FEAD737A7FB03687642C8F5803813
:104E2000A7FB06CE38BFA8F1010807FB08E64FF044
:104E3000000EA6FB028CE6FB03CEDCF1000CCEF1EB
:104E4000004E38BFAEF1010EA6FB0C584FF0000724
:104E50004FF00005E6FB0E87A1FB08C6A0FB07CEBE
:104E600016EB0E0645F10005E1FB076515F1E04E76
:104E70007EBFA4F580345FEA46066D4116F18007D7
:104E800045F100054FEA17274FEA066647EA05672E
:104E9000A6F1DE46B6F1805F4FEA15251FD93846E8
:104EA00024F0010C05EBC471BCF1FE6F01EB0C1199
:104EB00002D8F0BCBDE8008124425CBF01F5801E31
:104EC0009EEAC47F02D4F0BCBDE80081244238D4FD
:104ED000F0BCA1F1C041BDE8004100F007BA4FEAC3
:104EE000D22242EA43524FEAD323A7FB02864FEA7B
:104EF000D02040EA415007FB03661EEA0E0F4FEA3E
:104F0000D12105FB026658BFA6EB0056B6EB005652
:104F10004FEA520E4EEAC37E18EB0E0E56EB530EBE
:104F2000BDD518EB02085E417F1C55F10005B6E7C0
:104F30004FF480154FF000074FF000064FF00008C7
:104F4000ADE7F0BC4FF0000001F1C04101F00041BD
:104F5000BDE8008111EA0C1F0CEA131500D00CE02B
:104F600013EA0C1F00F025804FF00000F0BC81EA2E
:104F7000030101F00041BDE80081F0BCBDE8004143
:104F800081EA030100F0B2B9F0BCBDE8004170B5A0
:104F900000F05EF9097EFC3E00F007B881EA0301EB
:104FA0004FF0000001F00041704781EA030100F07A
:104FB0009DB9F0BCBDE800414FF0000021497047A9
:104FC000FFFDFBF9F7F5F4F2F0EEEDEBE9E8E6E4CE
:104FD000E3E1E0DEDDDBDAD8D7D5D4D3D1D0CFCD55
:104FE000CCCBCAC8C7C6C5C4C2C1C0BFBEBDBCBB8E
:104FF000BAB9B8B7B6B5B4B3B2B1B0AFAEADACAB89
:10500000AAA9A8A8A7A6A5A4A3A3A2A1A09F9F9E62
:105010009D9C9C9B9A999998979796959594939314
:10502000929191908F8F8E8E8D8C8C8B8B8A8989AB
:10503000888887878685858484838382828181802E
:105040000000FF070000F87F4FEA41034FEA535387
:10505000A3F58063D3F11E03C8BFD3F1210C0CDD8F
:105060004FF0004242EAC12242EA505232FA03FCB7
:105070008CEAE17CACEBE1707047102BC4BF0020E0
:10508000704703F5787CBCF1FF3F04D06FF000421D
:1050900082EA2100704770B500F0DAF84992248066
:1050A00000207047F2E710F0004248BF4042B0FADB
:1050B00080F310FA03F10AD0C3F11D0303F58063F6
:1050C0004FEA415002EB035202EBD12170474FF0FF
:1050D00000007047B0FA80F310FA03F10AD0C3F170
:1050E0001D0303F580634FEA41504FEA035202EB80
:1050F000D12170474FF0000070470000DFF848C131
:1051000070B51CEA111E1EBF1CEA13159EEA0C0F97
:1051100095EA0C0F00F06F8081EA030423EA4C1338
:105120004EEAD47E21EA4C1141F4801143F48013FD
:10513000AE44A1FB024CA0FB0365AEF17F7E3619A5
:1051400055EB0C05A1FB034C4CF10003A0FB021C2A
:1051500016EB0C06654153F10003094218BF46F0F7
:10516000010613F4007F0BD14FEA03314FEA0530FB
:10517000340341EA155140EA16506FF003020AE089
:105180004FEAC3214FEAC520F40241EA555140EAF3
:1051900056506FF0020202EB2E4201EB025585EAF7
:1051A000CE710AD05FEA440C18BF24F0004450F1DD
:1051B000000041F1000120EAD47040F2FE7C62451B
:1051C00000D270BDA84214BF4FF080444FF040445D
:1051D000002E08BF0024BEF1806FA8BFA1F1C0411E
:1051E000BDE8704080F282804FF0000001F1C041C4
:1051F00001F0004170479EEA0C0F0CEA131518BF2E
:1052000095EA0C0F06D04FF0000081EA030E0EF075
:10521000004170BD00F01CF88900013E00F007B8A5
:1052200000F009B84FEA430C5FEA5C5C08D081EA01
:10523000030100F05BB84FEA410C5FEA5C5CF6D119
:105240004FF00000014970470000FF070000F87FA1
:105250000EF1020E2EF0030E5EF8046B364205D4FA
:10526000012A43EB030515F5001F12D8012841EB75
:10527000010C1CF5001F0CD80ED14FEAD17C15F59E
:10528000001F0CEB4C0C0CF1020C08BF4CEBD37C58
:1052900004E04FF0080C01E04FEAD37C0CEB4C0526
:1052A00026FA05F606F00706B6F1040C06D20EEB58
:1052B000860CBDE870404CF0010C6047DFE80CF054
:1052C000090B02024FF000414FF00000A1F5002150
:1052D00070BD19461046012851EB010418BFD4F5E2
:1052E000001484BF002001F0004170BD0808A0F543
:1052F00000114FEA3101704710B591EA030F48BF22
:1053000083F000433FF5A8AC841A71EB030C07D27D
:1053100012198CF0004C43EB0C03001B61EB0C01E9
:10532000DFF8A4E14FEA1154A4EB135C1EEA430F2B
:1053300018BF9EEA445F00F0B08023EA6E03524239
:1053400021EA0451C3EB6E0338BF5B1EDCF1200E73
:1053500025D322FA0CFE10EB0E0043FA0CFE41EBB3
:105360000E01CCF1200E03FA0EFE10EB0E0051F1EF
:105370000001CCF1200E29D412FA0EF201EB0451F7
:10538000BDE8104058BF7047401C1CBFB2F1004F31
:10539000704700280CBF491C20F00100704712EB39
:1053A000020E43EB030218BF4FF0010E4EEA420219
:1053B000ACF1200CDCF11E0E54D943FA0CFE10EBBC
:1053C0000E0051F1FF31CCF11E0ED5D50EF1010EBC
:1053D00012FA0EFE404141EB010101EB445C5FEA31
:1053E0005C5C10D910EBDE7001EB045138BFBEF1EC
:1053F000004FBDE8104018BF704700280CBF491C83
:1054000020F00100704730D24FEAD42C11F5001182
:1054100024F400641BD0B1FA81F20B3AA41AA41E42
:10542000D2F12003914030FA03F31943904001EB8D
:10543000CC71002C01EB0451BDE81040A8BF7047AF
:1054400001F1C0414FF0000001F000417047B0FA97
:1054500080F310FA03F100D110BDE41A173C48059F
:10546000C90AE4E701EB045110BD491001EB0451F6
:10547000BDE810404FEA300002E04FF000017047F5
:105480004A0008BF0042F8D0B2F5001F28BF70479D
:1054900001F000414FF0000070479EEA445F07D0E2
:1054A00011EA5E0FBDE8104004BF002100207047E4
:1054B000BDE8104070B5FFF7CBFE00BF40DFF63E01
:1054C00083F00041104670470000E0FF4FF040704D
:1054D000E1EE100A7047FEF71DBC3031323334352F
:1054E0003637383941424344454640305800303120
:1054F000323334353637383961626364656640303B
:105500007800040000080000000000000002000114
:105510000000100002400000000000A00000000099
:1055200005400000000000C8000000000C40000022
:105530000000409C00000000194000000020BCBE9C
:105540000000000034400000BFC91B8E00000004B2
:10555000B5400000504BCFD06607E2CF01000000FD
:105560006C4100003E8251AADFEEA734010000002A
:10557000D9420000DCB5A0E23A301F97FFFFFFFFE1
:10558000B4450000FD25A0C8E9A3C14FFFFFFFFF00
:10559000FF3F00000000008000000000FF3F00000F
:1055A00000000080000000006465633A2020202095
:1055B000646973706C617920746865206465632C1C
:1055C000616464206120626C616E6B202B206E75BB
:1055D0006D202C7468656E2077696C6C2065786529
:1055E0006375746520746865206761727269736F92
:1055F0006E20636F6E76657273696F6E0D0A0A00B6
:105600006865783A20202020646973706C61792085
:10561000746865206865782C616464206120626C20
:10562000616E6B202B206E756D202C7468656E206A
:1056300077696C6C2065786563757465207468653E
:10564000206761727269736F6E20636F6E76657228
:1056500073696F6E0D0A0A002D2D2D2D2D2D2D2D08
:105660002D2D2D2D2D2D2D2D2D2D2D2D2D2D2D2D6A
:105670002D6D6574686F64204944202D2D2D2D2DCE
:105680002D2D2D2D2D2D2D2D2D2D2D2D2D2D2D2D4A
:105690002D2D2D2D2D2D200D0A0000002D2D2D2D11
:1056A0002D2D2D2D2D2D2D2D2D2D2D2D2D2D2D2D2A
:1056B0002D2D2D2D2D6D6574686F64206C697374AC
:1056C0002D2D2D2D2D2D2D2D2D2D2D2D2D2D2D2D0A
:1056D0002D2D2D2D2D2D2D2D2D2D2D200D0A0000A4
:1056E0003F000000646563006964000072756E74B9
:1056F000696D650068656C70000000006C6973740A
:105700000000000068657800766F69642055736D4D
:105710006172745F4C4D3239384E5F537065656409
:1057200028636861722A2073706565642C75696EE0
:1057300074385F742063682900000000766F696424
:1057400020736572766F5F636F6E74726F6C5F61EA
:105750006E676C6528696E7420616E676C652C20BD
:10576000696E742063682900766F696420777269B6
:1057700074655F6164647228753332206164647299
:105780002C7533322076616C29000000753332208D
:10579000726561645F61646472287533322061648C
:1057A00064722900766F69642064656C61795F6D4D
:1057B0007328753136206E6D73290000766F696429
:1057C0002064656C61795F757328753332206E755E
:1057D000732900002059000800000020700100001B
:1057E000C40100088C5900087001002068070000FF
:1057F000200200081C00000043000000F8FFFFFF2B
:105800000C0000000E0000000F0000002E00000041
:105810001001000043000000F8FFFFFF004040407F
:105820004040404040404141414141404040404073
:10583000404040404040404040404040400502021F
:1058400002020202020202020202020202202020DE
:10585000202020202020200202020202020290903A
:105860009090909010101010101010101010101038
:10587000101010101010101002020202020288888C
:105880008888888808080808080808080808080898
:105890000808080808080808020202024000000080
:1058A00000000000000000000000000000000000F8
:1058B00000000000000000000000000000000000E8
:1058C00000000000000000000000000000000000D8
:1058D00000000000000000000000000000000000C8
:1058E00000000000000000000000000000000000B8
:1058F00000000000000000000000000000000000A8
:105900000000000000000000000000000000000097
:105910000000000000000000000000000000000087
:1059200011847A030A680901020304060708090CB6
:10593000A9108113E0561B08F4041AFC041AE804A9
:105940001304571B08E4081AEC041325321B088CB7
:10595000101A2B081A68081305211B08A4081375D0
:10596000201B08BC081349231B083C08130B251BEC
:10597000080808224C1420BD2D1B08E104138B2EAF
:0C598000140803311B08067B01DC00004A
:040000050800018965
:00000001FF
