:020000040800F2
:10000000800D002071050008450300084703000823
:100010004B0300084F0300085303000800000000D2
:10002000000000000000000000000000570300086E
:1000300059030008000000005B0300085D0300088E
:100040008B0500088B0500088B0500088B05000850
:100050008B0500088B0500088B0500088B05000840
:100060008B0500088B0500088B0500088B05000830
:100070008B0500088B0500088B0500088B05000820
:100080008B0500088B0500088B0500088B05000810
:100090008B0500088B0500088B0500088B05000800
:1000A0005D2B0008712B00088B0500088B050008EC
:1000B0008B0500088B0500088B0500088B050008E0
:1000C0008B0500088B0500088B0500088B050008D0
:1000D0008B0500083B2200088B0500088B050008F3
:1000E0008B0500088B0500088B0500088B050008B0
:1000F0008B0500088B0500088B0500088B050008A0
:100100008B0500088B0500088B0500088B0500088F
:100110008B0500088B05000867390008052A0008D0
:100120008B0500088B0500088B0500088B0500086F
:100130008B0500088B0500088B0500088B0500085F
:100140008B0500088B0500088B0500088B0500084F
:100150008B0500088B0500088B0500088B0500083F
:100160008B0500088B0500088B0500088B0500082F
:100170008B0500088B0500088B0500088B0500081F
:100180008B0500088B05000800F002F800F07EF8EF
:100190000AA090E8000C82448344AAF10107DA45E2
:1001A00001D100F073F8AFF2090EBAE80F0013F0B6
:1001B000010F18BFFB1A43F001031847B48E00006B
:1001C000D48E00000A444FF0000C10F8013B13F0ED
:1001D000070408BF10F8014B1D1108BF10F8015BA0
:1001E000641E05D010F8016B641E01F8016BF9D193
:1001F00013F0080F1EBF10F8014BAD1C0C1B09D1EA
:100200006D1E58BF01F801CBFAD505E014F8016B5B
:1002100001F8016B6D1EF9D59142D6D370470000ED
:100220000023002400250026103A28BF78C1FBD8FF
:10023000520728BF30C148BF0B607047662907F0DE
:100240009580642904F03882752904F03582782974
:1002500004F06E82632904F0FA85732904F0FF85A7
:10026000002070471FB507F074F804F061FE040029
:100270000020002106F0B0FA401C60600020002140
:1002800006F094FAE0601FBD10B510BD04F080FFC9
:100290001146FFF7E7FF00F024F805F023FA03B456
:1002A000FFF7F2FF03BC01F069FF00009FED160BA2
:1002B000174880ED020B9FED170B80ED040B9FEDAF
:1002C000170B80ED060B9FED170B184880ED020B06
:1002D0009FED170B80ED040B9FED170B80ED060BC8
:1002E00070474FF4A06000F063F9A82001F0C4FE4D
:1002F0004FF4E13001F04FFF114841685420884726
:1003000001F0E0FF00BFFEE70000000000C0724007
:1003100088010020000000000000244000000000D0
:10032000000069400000000000C072C0C801002049
:1003300000000000000024C000000000000069C0B0
:1003400094000020704700BFFEE700BFFEE700BF3B
:10035000FEE700BFFEE77047704770477047000038
:100360000CB50020019000907648006840F4803081
:100370007449086000BF7348006800F400300090C2
:100380000198401C0190009818B90198B0F5A04F51
:10039000F1D16C48006800F4003010B101200090E9
:1003A00001E0002000900098012846D165484030C7
:1003B000006840F08050634940310860624800683E
:1003C00040F44040604908605E48083000685D497C
:1003D000083108600846006840F40040086008469C
:1003E000006840F4A05008605848091F0860081FC2
:1003F000006840F08070091F086000BF5148006825
:1004000000F000700028F9D040F2057050490860F3
:100410004C480830006820F003004A490831086061
:100420000846006840F00200086000BF45480830F8
:10043000006800F00C000828F8D10CBD10B5454844
:10044000006840F47000434908603E48006840F08E
:1004500001003C49086000203A49083108603948E9
:1004600000683D490840374908603C48091D08605C
:10047000081F006820F48020091F0860002031490F
:100480000C310860FFF76CFF4FF000603149803994
:10049000086010BD70B50020002202230024022154
:1004A000284D08352D6805F00C0020B1042806D031
:1004B000082834D107E02A4D2A4E356033E02A4D12
:1004C000284E35602FE01F4D2D1D2D68C5F380543B
:1004D0001C4D2D1D2D6805F03F0154B1224DB5FB7B
:1004E000F1F5184E361D3668C6F3881605FB06F280
:1004F00009E01B4DB5FBF1F5124E361D3668C6F30B
:10050000881605FB06F20F4D2D1D2D68C5F301451C
:100510006D1C6B00B2FBF3F5124E356003E0104D1D
:10052000104E356000BF00BF064D08352D68C5F37D
:1005300003150E4E705D0B4D2D68C540094E35609C
:1005400070BD0000003802400070004008544007B1
:10055000003C024088ED00E0FFFFF6FE1030002472
:100560000024F4000000002000127A0004000020A3
:100570000948804709480047FEE7FEE7FEE7FEE737
:10058000FEE7FEE7FEE7FEE7FEE7FEE70448054973
:10059000054A064B704700003D0400088901000829
:1005A00080070020800D00208009002080090020A5
:1005B00032490143324A1160704770B5002100236F
:1005C0000F22C4781CB32E4C246804F4E064C4F5F4
:1005D000E064C4F30721C1F10404E3B20A414478A2
:1005E0009C40E1B28478144021430C07210E254C35
:1005F00005786155047804F01F050124AC400578A6
:100600006D11AD0005F1E025C5F8004109E0047861
:1006100004F01F050124AC401B4D0678761145F807
:10062000264070BD194A0A400243154B1B1F1A6031
:10063000704739B1124A121D12680243104B1B1D3C
:100640001A6006E00E4A121D126882430C4B1B1DF5
:100650001A607047042808D14FF0E021096941F081
:1006600004014FF0E022116107E04FF0E021096939
:1006700021F004014FF0E022116170470000FA05FB
:100680000CED00E000E400E080E100E080FFFF1FEF
:1006900010B504469848844208D10121084600F06C
:1006A00086FB0021012000F082FB76E09348844223
:1006B00008D10121022000F07AFB0021022000F085
:1006C00076FB6AE08E48844208D10121042000F0C4
:1006D0006EFB0021042000F06AFB5EE08948844242
:1006E00008D10121082000F062FB0021082000F061
:1006F0005EFB52E08448844208D10121102000F0C2
:1007000056FB0021102000F052FB46E07F48844257
:1007100008D10121202000F04AFB0021202000F018
:1007200046FB3AE07A48844208D10121402000F09B
:100730003EFB0021402000F03AFB2EE07548844249
:1007400008D10121802000F032FB0021802000F040
:100750002EFB22E07048844208D10121801500F070
:1007600026FB0021A01500F022FB16E06B48844216
:1007700008D10121401500F01AFB0021601500F09E
:1007800016FB0AE06648844207D10121001500F0FB
:100790000EFB0021201500F00AFB10BDF0B50A4643
:1007A00000210023002400BF3DE0012505FA01F3EC
:1007B000156805EA03049C4234D105684F000326FE
:1007C000BE40B543056015794E00B5400668354317
:1007D00005601579012D02D01579022D16D1856895
:1007E0004F000326BE40B543856055794E00B540A5
:1007F000866835438560456801268E40B54345606F
:10080000456896798E40B6B235434560C5684F005D
:100810000326BE40B543C560D5794E00B540C668D5
:100820003543C560491C1029BFD3F0BD4FF6FF7199
:1008300001600021017141718171C171704708B57A
:100840004FF480320092009A0A430092009AC261EB
:10085000C161009AC261C2690092C269009208BD7A
:100860000246002013690B400BB1012000E000207C
:1008700070470146086980B27047024600205369FC
:100880000B400BB1012000E0002070470146486991
:1008900080B2704701837047418370470AB101837A
:1008A00000E0418370474161704742694A404261BC
:1008B0007047F0B5002300244D07ED0E02FA05F352
:1008C000CE1000F1200555F826504E07F70E0F26E2
:1008D000BE40B543CF1000F1200646F82750CE1099
:1008E00000F1200555F8265045EA0304CE1000F12A
:1008F000200545F82640F0BD0000024000040240FB
:1009000000080240000C02400010024000140240A7
:1009100000180240001C0240002002400024024057
:1009200000280240F948006840F00100F7490860DB
:100930000020F64908310860F4480068F44908408E
:10094000F2490860F348091D0860F348EF49843113
:100950000860F0481038091D0860EC48006820F471
:100960008020EA4908600020E8490C310860E74926
:100970008C31086070470021E44A921C11701146C6
:100980000870704710B501460022002300204A116C
:10099000012A02D1DD4C236808E0022A03D1DB4C96
:1009A0007034236802E0D94C7434236801F01F02CC
:1009B000012494401C400CB1012000E0002010BD37
:1009C00038B5002000900024002500BF3120FFF73B
:1009D000D9FF05460098401C00900098B0F5A04F44
:1009E00001D0002DF2D03120FFF7CCFF08B1012457
:1009F00000E00024204638BD01460020C34A1068AC
:100A000020F0F80040EAC10010607047C349086058
:100A100070470021BD4A703211701170012802D058
:100A200004280AD104E00121B84A7032117005E0AF
:100A30000521B64A7032117000E000BF00BF704758
:100A4000B7490860704770B5049C41EA82150126D9
:100A5000C6EB530645EA0645054345EA0465AB4E39
:100A6000361D356070BDAD4908667047820142EAA7
:100A70000172A64B84331A607047A8498866704794
:100A800010B5830143EA016343EA02739F4C883443
:100A9000236010BDA14908677047A049C86470472A
:100AA00002460020994B0833186820F0EC6042EAB7
:100AB00001031843954B0833186070470246002025
:100AC000924B0833186820F0784042EA010318433B
:100AD0008E4B083318607047014600208B4A08325D
:100AE000106820F003000843106070478748083002
:100AF000006800F00C00704701460020834A08326D
:100B0000106820F0F0000843106070470146002094
:100B10007E4A0832106820F4E050084310607047A5
:100B200001460020794A0832106820F4604040EA0B
:100B3000C10010607047F0B500210022002402259A
:100B400000260223714F08373F6807F00C0121B1DE
:100B5000042905D0082937D105E0724F076036E037
:100B6000714F076033E0694F3F1D3F68C7F3805600
:100B7000664F3F1D3F6807F03F036EB16A4FB7FBFA
:100B8000F3F7DFF888C10CF1040CDCF800C0CCF3FB
:100B9000881C07FB0CF40CE0624FB7FBF3F7DFF89F
:100BA0006CC10CF1040CDCF800C0CCF3881C07FB12
:100BB0000CF4564F3F1D3F68C7F301477F1C7D0073
:100BC000B4FBF5F7076002E0564F076000BF00BFB7
:100BD0004E4F08373F6807F0F0010909534F7A5C20
:100BE0000768D7404760494F08373F6807F4E0512E
:100BF000890A4E4F7A5C4768D7408760434F083771
:100C00003F6807F46041490B484F7A5C4768D7401A
:100C1000C760F0BD002100F44072B2F5407F0AD1F8
:100C20003A4A0832116821F4F811414A024011434E
:100C3000364A08321160354A70321268C0F30B032D
:100C40001A43324B70331A60704735494439086093
:100C5000704733494039086070473649086070472B
:100C600001460020294A8C32106820F01F004A1EDD
:100C70001043264A8C321060704701460020234AF8
:100C80008C32106820F4F8504A1E40EA02201F4AB5
:100C90008C3210607047014600201C4A8C3210686C
:100CA00020F4401008431060704701460020174AA6
:100CB0008C32106820F440000843106070470146F1
:100CC0000020124A8C32106820F440300843106033
:100CD000704719490860704739B10C4A30321268C0
:100CE00002430A4B30331A6006E0084A3032126879
:100CF0008243064B30331A607047F9B1034A3432ED
:100D000012680243014B34331A601CE00038024081
:100D1000FFFFF6EA103000240030002000004742B8
:100D2000800E47420024F40000127A0014000020D4
:100D3000FFFCFF0F5C014742E01147428F4A1268F7
:100D400082438E4B1A60704739B18C4A121D12686B
:100D500002438A4B1B1D1A6006E0884A121D126866
:100D60008243864B1B1D1A60704739B1834A0C328F
:100D700012680243814B0C331A6006E07F4A0C3242
:100D8000126882437D4B0C331A60704739B17B4A3D
:100D9000103212680243794B10331A6006E0774A2A
:100DA000103212688243754B10331A60704739B1A4
:100DB000724A243A12680243704B243B1A6006E0E0
:100DC0006E4A243A126882436C4B243B1A60704787
:100DD00039B16A4A203A12680243684B203B1A60D4
:100DE00006E0664A203A12688243644B203B1A6050
:100DF000704739B1614A1C3A126802435F4B1C3B91
:100E00001A6006E05D4A1C3A126882435B4B1C3B49
:100E10001A60704739B1594A143A12680243574B65
:100E2000143B1A6006E0554A143A12688243534B49
:100E3000143B1A60704739B1504A103A12680243A5
:100E40004E4B103B1A6006E04C4A103A126882433F
:100E50004A4B103B1A60704739B1484A1C3212683D
:100E60000243464B1C331A6006E0444A1C321268A7
:100E70008243424B1C331A60704739B13F4A2032DB
:100E8000126802433D4B20331A6006E03B4A203291
:100E900012688243394B20331A60704739B1374AA0
:100EA000243212680243354B24331A6006E0334A79
:100EB000243212688243314B24331A60704739B1AF
:100EC0002E4A2C32126802432C4B2C331A6006E057
:100ED0002A4A2C3212688243284B2C331A607047FE
:100EE00039B1264A303212680243244B30331A603B
:100EF00006E0224A303212688243204B30331A60B7
:100F00007047012808D11D493C31096841F00801AA
:100F10001A4A3C32116007E018493C31096821F057
:100F20000801164A3C321160704739B1134A273A1A
:100F300012780243114B273B1A7006E00F4A273AFA
:100F4000127882430D4B273B1A7070470B48403094
:100F5000006840F0807009494031086070470146E0
:100F60000020064A283A12680A400AB1012000E02F
:100F70000020704701492639087070473438024014
:100F800010B50446FE48844208D101210846FFF707
:100F900052FF00210120FFF74EFF9DE0B4F1804F8A
:100FA00008D101210846FFF735FF00210120FFF796
:100FB00031FF91E0F348844208D101210220FFF77C
:100FC00029FF00210220FFF725FF85E0EE4884423B
:100FD00008D101210420FFF71DFF00210420FFF7A5
:100FE00019FF79E0E948844208D101210820FFF780
:100FF00011FF00210820FFF70DFF6DE0E448844257
:1010000008D101211020FFF705FF00211020FFF774
:1010100001FF61E0DF48844208D101212020FFF771
:10102000F9FE00212020FFF7F5FE55E0DA48844262
:1010300008D101210220FFF7FEFE00210220FFF768
:10104000FAFE49E0D548844209D101210804FFF79E
:10105000F2FE00214FF48030FFF7EDFE3CE0D04877
:10106000844209D101214804FFF7E5FE00214FF435
:101070000030FFF7E0FE2FE0CA48844209D1012189
:101080008804FFF7D8FE00214FF48020FFF7D3FE3D
:1010900022E0C548844208D101214020FFF7BAFE72
:1010A00000214020FFF7B6FE16E0C048844208D178
:1010B00001218020FFF7AEFE00218020FFF7AAFE6D
:1010C0000AE0BB48844207D101218015FFF7A2FE48
:1010D0000021A015FFF79EFE10BD00220288A84B3C
:1010E00098420ED0AC4B98420BD0B0F1804F08D054
:1010F000A44B984205D0A44B984202D0A34B9842EF
:1011000004D14FF68F731A404B881A43A04B984274
:1011100007D0A04B984204D04FF6FF431A400B89EA
:101120001A4302804B68C3620B880385944B984234
:1011300002D0994B984201D18B7A03860123838296
:1011400070474FF0FF3141600021018001814180F3
:10115000817270470185828270470A4600210188AA
:101160004FF68F73194011430180704741627047F9
:10117000C16270470146486A70470146088D704752
:1011800021B1028842F00202028004E002884FF698
:10119000FD731A400280704721B1028842F00402B8
:1011A000028004E002884FF6FB731A400280704709
:1011B00021B1028842F08002028004E002884FF6EA
:1011C0007F731A400280704702884FF6F7731A4007
:1011D000028002880A430280704702884FF6FF436C
:1011E0001A40028002880A430280704721B10288B7
:1011F00042F00102028004E002884FF6FE731A40BA
:101200000280704770B5002400220023058C4FF641
:10121000FE7635400584028C8388048B4FF68F75EB
:101220002C40B51E2C400D882C43751E2A408D89FC
:101230002A434D882A43524DA84202D0564DA84217
:1012400013D14FF6F7752A40CD892A434FF6FB7527
:101250002A408D882A434FF6FF652B404FF6FF55F5
:101260002B400D8A2B434D8A2B43838004838D684A
:101270004563028470BD70B5002400220023058CF4
:101280004FF6EF7635400584028C8388048B48F650
:10129000FF752C404FF6FF452C400D884FF6FF762A
:1012A00006EA05252C434FF6DF752A408D8906EAAC
:1012B00005152A434D8806EA05152A43304DA842F4
:1012C00002D0354DA8421DD14FF67F752A40CD89F9
:1012D0004FF6FF7606EA05152A434FF6BF752A40FA
:1012E0008D8806EA05152A434FF6FF352B404FF24D
:1012F000FF752B400D8A06EA85052B434D8A06EAC9
:1013000085052B43838004838D688563028470BDCB
:1013100070B5002400220023058C4FF6FF6635408F
:101320000584028C8388848B4FF68F752C404FF692
:10133000FC752C400D882C434FF6FF552A408D89B3
:101340004FF6FF7606EA05252A434D8806EA05256D
:101350002A430B4DA84202D00F4DA84238D14FF27C
:10136000FF752A40CD894FF6FF7606EA05252A4308
:101370004FF6FF352A408D8806EA05252A4319E0F5
:10138000000001400004004000080040000C004044
:1013900000100040001400400004014000400140E3
:1013A000004401400048014000180040001C00407B
:1013B000002000404EF6FF752B404DF6FF752B4088
:1013C0000D8A06EA05152B434D8A06EA05152B43BF
:1013D000838084838D68C563028470BD70B50022EC
:1013E00000230024058C4EF6FF7635400584038CDF
:1013F0008488828B48F6FF752A404FF6FF452A40C5
:101400000D884FF6FF7606EA05252A434DF6FF754F
:101410002B408D8906EA05352B434D8806EA0535B4
:101420002B43FE4DA84202D0FD4DA84208D14BF6F9
:10143000FF752C400D8A4FF6FF7606EA85152C4382
:10144000848082838D680564038470BD00210180DF
:101450004180818081608181C181018241827047A8
:1014600070B50346002000241846183001258D4031
:10147000ACB21D8CA5431D8409B108290AD100EB2B
:10148000610005684FF68F763540056005681543A5
:1014900005600FE00D1FC5F34E052844056848F6AA
:1014A000FF763540056005684FF6FF7606EA0226AE
:1014B0003543056070BD4163704781637047C16308
:1014C0007047016470470A460021018B4FF68F7305
:1014D00019401143018370470A460021018B48F6E9
:1014E000FF7319404FF6FF7303EA02231943018388
:1014F00070470A460021818B4FF68F7319401143C4
:10150000818370470A460021818B48F6FF7319409A
:101510004FF6FF7303EA02231943818370470A469B
:101520000021018B4FF6F773194011430183704777
:101530000A460021018B4FF2FF7319404FF6FF73EB
:1015400003EA02231943018370470A460021818B75
:101550004FF6F77319401143818370470A46002103
:10156000818B4FF2FF7319404FF6FF7303EA02239A
:101570001943818370470A460021018B4FF6FB73A4
:1015800019401143018370470A460021018B4FF631
:10159000FF3319404FF6FF7303EA02231943018317
:1015A00070470A460021818B4FF6FB7319401143A7
:1015B000818370470A460021818B4FF6FF33194023
:1015C0004FF6FF7303EA02231943818370470A46EB
:1015D0000021018B4FF67F7319401143018370473F
:1015E0000A460021018BC1F30E014FF6FF7303EA97
:1015F00002231943018370470A460021818B4FF66D
:101600007F7319401143818370470A460021818B03
:10161000C1F30E014FF6FF7303EA022319438183DE
:1016200070470A460021018C4FF6FD7319401143A3
:10163000018470470A460021018C4FF6F773194068
:101640001143018470470A460021018C4FF6DF7375
:1016500019404FF6FF7303EA0213194301847047E0
:101660000A460021018C4FF67F7319404FF6FF7335
:1016700003EA02131943018470470A460021018CD2
:101680004FF6FF5319404FF6FF7303EA0223194345
:10169000018470470A460021018C4FF2FF73194004
:1016A0004FF6FF7303EA02231943018470470A4689
:1016B0000021018C4DF6FF7319404FF6FF7303EACA
:1016C000023319430184704730B5002301248C4054
:1016D000A3B2048C9C430484048C02FA01F5ADB2DD
:1016E0002C43048430BD30B5002304248C40A3B2C5
:1016F000048C9C430484048C02FA01F5ADB22C43A3
:10170000048430BD828B4FF2FF331A408283828B78
:101710004FF6FF7303EA01231A4382837047F0B543
:101720000C461546002100220026078C4EF6FF7C51
:1017300007EA0C070784818B028C4FF6FF7707EAD4
:10174000043640F6FF4739404FF6FF7707EA052792
:1017500039434FF6FF7707EA0337394345F6FF77FA
:101760003A4046F480573A4381830284F0BD828B2D
:101770004FF6F3731A408283828B0A438283704749
:10178000F0B50C461546002100220026078C4FF6C6
:10179000FF6C07EA0C070784818B028C4FF6FF77FA
:1017A00007EA04264FF60C7739404FF6FF7707EA31
:1017B00003172F4339434FF2FF573A4046F48077DF
:1017C0003A4381830284F0BD028B4FF2FF331A400B
:1017D0000283028B4FF6FF7303EA01231A4302834D
:1017E0007047F0B50C461546002100220026078CF4
:1017F0004FF6EF7C07EA0C070784018B028C4FF64B
:10180000FF7707EA041640F6FF4739404FF6FF77A7
:1018100007EA033739434FF6FF7703E00000014042
:101820000004014007EA052739434FF65F773A4045
:1018300046F010073A4301830284F0BD028B4FF655
:10184000F3731A400283028B0A4302837047F0B598
:101850000C46154600210022068C4FF6FE773E40CE
:101860000684018B028C4FF60C7631407E1C06EA12
:1018700003162E4331434FF6F576324044F001060D
:10188000324301830284F0BD70B505460C462088C2
:1018900050B92389A28861882846FFF7D8FFE188DC
:1018A0002846FFF7CBFF25E0208804280AD12389AA
:1018B000A28861882846FFF794FFE1882846FFF751
:1018C00083FF17E0208808280AD12389A28861882D
:1018D0002846FFF755FFE1882846FFF748FF09E053
:1018E0002389A28861882846FFF719FFE1882846E6
:1018F000FFF708FF70BD0021018041800121818038
:101900000021C180018170472DE9F04105460C4658
:1019100000260127608808B9022600E00026A0887A
:10192000012801D1022700E001272088A0B92389DE
:10193000A28861882846FFF78AFFE1882846FFF7DA
:101940007DFF23893A4631462846FFF74AFFE18862
:101950002846FFF739FF13E02389A28861882846CB
:10196000FFF73FFFE1882846FFF72EFF23893A461D
:1019700031462846FFF76BFFE1882846FFF75EFFF8
:10198000BDE8F0810146486B70470146886B70479F
:101990000146C86B70470146086C70470A884B883F
:1019A0001A438B881A43CB881A430B891A434B89F5
:1019B0001A438B891A43A0F8442070470021018004
:1019C00041808180C180018141818181704731B135
:1019D000B0F8442042F40042A0F8442005E0B0F8FA
:1019E0004420C2F30E02A0F84420704721B182883F
:1019F00042F00402828004E082884FF6FB731A40B2
:101A00008280704721B1828842F00102828004E026
:101A100082884FF6FE731A40828070471AB183891C
:101A20000B43838102E083898B43838170478182EA
:101A3000704702460020138A0B400BB1012000E0E2
:101A400000207047CA430282704730B5024600202A
:101A500000230024158A05EA0103958905EA01049B
:101A600013B10CB1012000E0002030BDCA43028256
:101A7000704741EA0203A0F8483070471AB18389E1
:101A80000B43838102E083898B438381704721B1BB
:101A9000828842F00802828004E082884FF6F77361
:101AA0001A408280704701894FF6F8721140018117
:101AB00070470A46002101894FF68F731940114380
:101AC0000181704730B504460D4629462046FFF790
:101AD000F0FF208940F00700208130BD2DE9F04162
:101AE00004460D4616461F46602D06D13B46012290
:101AF00031462046FFF775FE05E03B4601223146A0
:101B00002046FFF7A4FE29462046FFF7D2FF208992
:101B100040F007002081BDE8F08130B50C4600217F
:101B20000189C9B24FF6FF7505EA03251543254320
:101B30002943018130BD2DE9F04105460E46174687
:101B40009846002443463A4631462846FFF7E5FFCB
:101B50002C894FF6F870044044F007044FF68F705C
:101B6000044044F070042C81BDE8F081F0B50446D7
:101B70000D4616461F463B46324629462046FFF78D
:101B8000CCFF208940F480402081F0BD82884FF650
:101B90008F731A40828082880A438280704702894C
:101BA0004FF6F8731A40028102890A430281704796
:101BB00002894FF67F731A40028102890A4302812B
:101BC0007047F0B50C4615461E4600210022002342
:101BD0000189028B038C4FF6F877394021434FF689
:101BE000FC473A4040F201173A434FF6DD773B405D
:101BF0004FF6FF7707EA06172F433B430181028325
:101C00000384F0BD21B1828842F08002828004E02A
:101C100082884FF67F731A4082807047A0F8501078
:101C20007047000010B50446FA48844208D10121EB
:101C30001020FFF700F900211020FFF7FCF857E013
:101C4000F548844209D101214804FFF7E3F8002157
:101C50004FF40030FFF7DEF84AE0F048844209D143
:101C600001218804FFF7D6F800214FF48020FFF708
:101C7000D1F83DE0EA48844209D10121C804FFF7C8
:101C8000C9F800214FF40020FFF7C4F830E0E54820
:101C9000844209D101210805FFF7BCF800214FF467
:101CA0008010FFF7B7F823E0DF48844208D1012114
:101CB0002020FFF7C0F800212020FFF7BCF817E034
:101CC000DA48844209D101218807FFF7A3F80021EF
:101CD0004FF08040FFF79EF80AE0D548844207D1D4
:101CE00001214005FFF796F800216005FFF792F803
:101CF00010BD2DE9FF4705460E460024A14600BF52
:101D0000A046B08900B100BF2C8A24F44054F0886A
:101D100004432C82AC8941F20C608443B088318941
:101D20000843718908430443AC81AC8A24F44074AD
:101D3000B0890443AC826846FEF7FDFEB548854293
:101D400002D0B948854202D1DDF80C9001E0DDF8FF
:101D50000890A88900F4004040B109EBC90000EBED
:101D6000091031684900B0FBF1F707E009EBC90041
:101D700000EB091031688900B0FBF1F76420B7FB74
:101D8000F0F004012009642101FB1078A88900F417
:101D9000004040B1322000EBC800B0FBF1F000F091
:101DA0000700044308E0322000EB08106421B0FB78
:101DB000F1F000F00F0004432C81BDE8FF874FF4E1
:101DC0001651016000218180C18001810C21418177
:101DD00000218181704710B502460020108A20F44E
:101DE00070600B884C8823438C882343CC88234322
:101DF0001843108210BD0021018041808180C18084
:101E0000704721B1828942F40052828104E08289C4
:101E10004DF6FF731A4082817047028B02F47F42B5
:101E20000283028B0A430283704721B1828942F404
:101E30000042828103E08289C2F30E0282817047F0
:101E400021B1828A42F40062828204E0828A4FF2E7
:101E5000FF731A4082827047C1F308028280704784
:101E600001468888C0F308007047028A4FF6F07375
:101E70001A400282028A0A430282704721B1828993
:101E800042F00202828104E082894FF6FD731A401B
:101E90008281704782894FF2FF731A408281828962
:101EA0000A4382817047028A4FF6DF731A4002822A
:101EB000028A0A430282704721B1028A42F48042B8
:101EC000028204E0028A4BF6FF731A4002827047D6
:101ED000818941F001018181704721B1828A42F0FC
:101EE0000802828204E0828A4FF6F7731A408282E7
:101EF0007047028BD2B20283028B42EA0122028334
:101F0000704721B1828A42F02002828204E0828AF4
:101F10004FF6DF731A408282704721B1828A42F005
:101F20001002828204E0828A4FF6EF731A408282A6
:101F30007047828A4FF6FB731A408282828A0A4374
:101F40008282704721B1828A42F00202828204E0DA
:101F5000828A4FF6FD731A40828270471AB1838AD3
:101F60000B43838202E0838A8B4383827047F0B500
:101F70000346002400260025002040F66A17B942D7
:101F800000D100BF1846C1F3421401F01F0601271B
:101F900007FA06F5012C01D10C3004E0022C01D126
:101FA000103000E014301AB107682F43076002E0D8
:101FB0000768AF430760F0BD02460020B1F5007F1F
:101FC00000D100BF13880B400BB1012000E00020BE
:101FD000704701F40072B2F5007F00D100BFCA4320
:101FE0000280704770B502460024002300250020BF
:101FF00040F66A16B14200D100BFC1F3421501F0AC
:102000001F03012606FA03F3012D13D196893340ED
:1020100017E000000010014000440040004800406C
:10202000004C004000500040001401400078004087
:10203000007C0040022D02D1168A334001E0968ACE
:1020400033400C12012606FA04F41688344013B10A
:102050000CB1012000E0002070BD10B5002200236B
:1020600040F66A14A14200D100BF0A120124944034
:10207000A3B2DC43048010BD10B504466FF0040029
:10208000FEF7E8FAE11704EB5171C1F3C701394AD1
:1020900011701046007800EB4001C1EBC0104FF604
:1020A000FF7101EAC0003449088010BD0146314A81
:1020B00012784A434FF0E0235A6100229A611A468F
:1020C000126942F001021A6100BF4FF0E02210696C
:1020D00000F001021AB100F48032002AF5D04FF06E
:1020E000E022126922F001024FF0E0231A6100227F
:1020F0009A6170470146204A12884A434FF0E02314
:102100005A6100229A611A46126942F001021A616C
:1021100000BF4FF0E022106900F001021AB100F494
:102120008032002AF5D04FF0E022126922F001023D
:102130004FF0E0231A6100229A61704770B504469F
:102140004FF4077094FBF0F0C6B24FF4077094FBA5
:10215000F0F100FB114085B205E04FF40770FFF786
:10216000C9FF701EC6B2002EF7D115B12846FFF781
:10217000C1FF70BD240000202600002000BF704772
:1021800000BF4C4A128802F04002002AF9D0C2B2C5
:10219000484B9A80704710B588B004460121084624
:1021A000FEF79AFD01211020FEF7F0FD072209211C
:1021B0004148FEF77EFB07220A213F48FEF779FBE4
:1021C0004FF4C060069002208DF81C008DF81D00B1
:1021D00000208DF81E0001208DF81F0006A936484A
:1021E000FEF7DCFA02940020ADF80C00ADF80E000A
:1021F000ADF81000ADF814000C20ADF8120002A9E3
:102200002C48FFF776FD01212A48FFF7FAFD01224D
:1022100040F225512748FFF7AAFE25208DF804003B
:1022200003208DF805008DF8060001208DF80700C9
:1022300001A8FEF7C2F908B010BD10B540F2255153
:102240001C48FFF7CFFE10B31A48FFF709FEC4B2CF
:102250001A48008800F40040C8B91848008800F403
:10226000804060B10A2C03D000201449088020E08F
:102270001248008840F400401049088019E00D2CF5
:1022800006D10E48008840F480400C49088010E0D8
:102290000A480088C0F30D0009490C54074800881B
:1022A000401C0649088008460088C72801DD002038
:1022B000088010BD00100140000002402C000020EA
:1022C0000802002000B58BB001210220FEF704FDBA
:1022D00001210220FEF749FD022200215648FEF7A7
:1022E000E8FA022201215448FEF7E3FA032009909C
:1022F00002208DF8280000208DF82A0001208DF89A
:102300002B0003208DF8290009A94B48FEF746FA57
:102310000020ADF82000ADF81A0044F61F600790C9
:102320005320ADF8180006A94448FEF7D6FE6020F9
:10233000ADF804000120ADF806000020ADF808005B
:102340004FF48070ADF814000020ADF810004FF489
:10235000FA70039001A93948FEF7DAFF01A937485E
:10236000FFF73CF808213548FFF7EFF8082133481C
:10237000FFF7F4F801213148FEF738FF0BB000BD3C
:1023800070B504460D46B4F5FA7F01DA40F2F31455
:1023900040F6C410844200DD441E012D02D0022DFF
:1023A0000AD104E021462548FFF789F804E02146D8
:1023B0002248FFF786F800BF00BF70BD70B52DED55
:1023C0000A8BB0EE408AF0EE608A04469FED1C0B4B
:1023D000B0EE409AF0EE609A9FED1B0BB0EE40AA73
:1023E000F0EE60AA53EC192B51EC180B04F022FD0F
:1023F00041EC1C0B53EC1A2B04F036FA41EC1B0B8E
:1024000004F082FC05462146FFF7BAFFBDEC0A8BBB
:1024100070BD70B52DED028B05460C46284604F0C4
:10242000BFF8B0EE408AF0EE608A2046FFF7C6FFA4
:10243000BDEC028B70BD00000004024000040040AF
:10244000B81E85EB513826409A99999999C17240E6
:1024500000B589B001210420FEF787FC0121082086
:10246000FEF73AFC02220C21B048FEF722FA0222C3
:102470000D21AE48FEF71DFA4FF4405004900220A3
:102480008DF8140003208DF8150001208DF816003A
:102490008DF8170004A9A548FEF780F94FF6FF70E4
:1024A00007900020ADF81800ADF81A00ADF8200034
:1024B00006A99F48FEF711FE0A231A4603219C48ED
:1024C000FFF77FFB01A8FFF716FA0A20ADF80C0012
:1024D00001A99748FFF7D8F947F6FF7094492431CE
:1024E00008601E208DF8000001208DF801000320F7
:1024F0008DF8020001208DF803006846FEF75DF8B4
:102500008B488C49486147F2305008830121884844
:10251000FEF76CFE09B000BD00B589B001210820AE
:10252000FEF723FC01210846FEF7D6FB022200211C
:102530008148FEF7BEF9022201217F48FEF7B9F972
:102540000320049002208DF8140003208DF815005C
:1025500001208DF816008DF8170004A97648FEF7C3
:102560001DF94FF6FF7007900020ADF81800ADF888
:102570001A00ADF8200006A97048FEF7AEFD0A2348
:102580001A4603216D48FFF71CFB01A8FFF7B3F9BA
:102590000A20ADF80C0001A96848FFF775F947F665
:1025A000FF7066492431086032208DF80000012058
:1025B0008DF8010002208DF8020001208DF8030043
:1025C0006846FDF7FAFF5D485D49486147F23050C3
:1025D000088301215948FEF709FE09B000BD10B576
:1025E000044624B1012C07D0022C0BD107E0FFF7E1
:1025F0002FFFFFF791FF06E0FFF72AFF03E0FFF749
:102600008BFF00E000BF00BF10BD70B52DED0C8B3F
:10261000044600266069406AA0F5FE45FF3D25603E
:10262000208BA84203DA761C208B2D1A06E0208B23
:102630004042A84202DD761E208B0544208B04F028
:10264000A9FB41EC1B0B284604F08DFB41EC1D0B54
:102650009FED3C0B53EC102B04F0ECFB41EC1C0BFE
:1026600053EC1B2B04F0BCF941EC1A0B9FED370B1C
:1026700053EC102B04F0DEFB41EC180B304604F059
:1026800072FB41EC1C0B9FED2F0B53EC102B04F055
:10269000D1FB41EC1B0B9FED2D0B53EC102B04F0E9
:1026A000C9FB41EC1A0B94ED021BB0EE410AF0EEAF
:1026B000610A53EC102B04F0D7F841EC190B53ECE2
:1026C000182B04F0D1F8C4E9020194ED021BB0EE1E
:1026D000410AF0EE610A9FED1D1B53EC112B51ECEA
:1026E000100B04F07DF941EC180B04F00DFB206198
:1026F00047F6FF706169486294ED020BBDEC0C8BEC
:1027000070BD9FED140B80ED020B00210160016193
:1027100047F6FF7142695162704700214269516278
:10272000704701464869406A80B27047000C024019
:1027300000080040D002002000000240000C0040D1
:10274000F0020020000000000000F03F0000000048
:1027500000807640000000000000000000B58BB053
:1027600001211020FEF7B8FA01210846FEF70EFB02
:1027700002208DF8280000208DF82A0003208DF813
:10278000290001208DF82B00400209900122092127
:102790008348FEF78EF801220B218148FEF789F865
:1027A00009A97F48FDF7FAFF4FF40060099009A9D5
:1027B0007B48FDF7F3FF0020ADF82000ADF81A00CC
:1027C00042F2CF0007900120ADF8180006A9754825
:1027D000FEF783FC6020ADF804000120ADF8060090
:1027E0000020ADF808004FF48070ADF81400002010
:1027F000ADF81000039001A96A48FEF703FD01A996
:102800006848FEF738FD08216648FEF788FE082173
:102810006448FEF78DFE01216248FEF7C9FC0BB04B
:1028200000BD00B58BB001211020FEF755FA012143
:102830000846FEF7ABFA02208DF8280000208DF83C
:102840002A0003208DF8290001208DF82B00400379
:10285000099009A95248FDF7A1FF4FF48040099063
:1028600009A94F48FDF79AFF01220D214C48FEF7B8
:1028700020F801220E214A48FEF71BF80020ADF88F
:102880002000ADF81A0042F2CF0007900120ADF809
:10289000180006A94348FEF720FC6020ADF80400AC
:1028A0000120ADF806000020ADF81000039001A94A
:1028B0003C48FEF72DFD01A93A48FEF78FFD08219F
:1028C0003848FEF742FE08213648FEF747FE012150
:1028D0003448FEF76DFC0BB000BD10B50446FFF7A1
:1028E0003DFFFFF79EFF01212E48FFF770F8012101
:1028F0002C48FEF77BFC10BD70B504460D4642F235
:10290000CF00844201DD044603E02748844200DA18
:102910000446002C15DD012D08D121462148FEF783
:10292000CAFD00211F48FEF7C8FD20E0022D1ED180
:1029300021461C48FEF7C3FD00211A48FEF7C1FDE1
:1029400015E06442012D08D100211648FEF7B3FDC1
:1029500021461448FEF7B1FD09E0022D07D1002100
:102960001048FEF7ACFD21460E48FEF7AAFD70BDEB
:1029700070B52DED028B04460D46204603F010FE87
:10298000B0EE408AF0EE608A51EC180B04F0BCF90E
:1029900006462946FFF7B0FFBDEC028B70BD000074
:1029A000001002400000014031DFFFFF7FB5054607
:1029B0000C4601212020FEF7D8F90295ADF804401D
:1029C0000020ADF80C00ADF8060001A9FE48FEF7A6
:1029D00084FB37208DF8000000208DF801000220D4
:1029E0008DF8020001208DF803006846FDF7E5FD33
:1029F00001221146F448FFF711F80121F248FEF7D1
:102A0000F5FB7FBD10B50121EF48FFF71EF8012847
:102A100065D1EE480088B0F57A7F02D10020EB49FD
:102A20000880EA480088401CE84908800846008879
:102A30000A2190FBF1F201FB120010B90120E349D9
:102A40008870E2480088142190FBF1F201FB12002B
:102A500010B90120DD49C870DC4800881E2190FBB8
:102A6000F1F201FB120010B90120D8490871D748D2
:102A70000088282190FBF1F201FB120010B901201F
:102A8000D2494871D1480088322190FBF1F201FB14
:102A9000120010B90120CD498871CC48008864210A
:102AA00090FBF1F201FB120010B90120C749C87177
:102AB000C6480088C82190FBF1F201FB120010B952
:102AC0000120C2490872C148008840F2E73190FBFA
:102AD000F1F201FB120010B90120BC49487201213A
:102AE000B948FEF7C3FF10BD3EB505460C460121AF
:102AF0000804FEF74BF90195ADF800400020ADF851
:102B00000800ADF802006946B148FEF7E6FA012276
:102B10001146AF48FEF782FF0121AD48FEF766FB84
:102B20003EBD3EB505460C4601214804FEF72EF990
:102B30000195ADF800400020ADF80800ADF80200A6
:102B40006946A448FEF7C9FA01221146A148FEF7DA
:102B500065FF01219F48FEF749FB3EBD10B50121ED
:102B60009B48FEF772FF01219948FEF77FFF10BDD9
:102B700010B501219748FEF768FF01219548FEF73F
:102B800075FF10BD70477047704710B59248FFF74A
:102B90003CFD9248FFF739FD8F4890ED021BB0EEE7
:102BA000410AF0EE610A8E4800F08AF98B4890EDF8
:102BB000021BB0EE410AF0EE610A8A4800F080F98B
:102BC000874890ED0E1BB0EE410AF0EE610A51EC21
:102BD000100B04F099F804460121FFF78DFE81489F
:102BE00090ED0E1BB0EE410AF0EE610A51EC100BB5
:102BF00004F08AF804460221FFF77EFE10BD7047FC
:102C0000704710B52DED028B0C2377A200210846EA
:102C100000F092FB0C2376A21946002000F08CFBFA
:102C20006D4890ED021BB0EE410AF0EE610A51ECE6
:102C3000100B03F0E7FD08EE100AB0EE480A002181
:102C4000372000F003FD654890ED021BB0EE410A0D
:102C5000F0EE610A51EC100B03F0D4FD08EE100AFF
:102C6000B0EE480A0C21372000F0F0FC00F0D6F955
:102C7000BDEC028B10BD6048006808B9012000E07F
:102C800000205D490860704710B5504880780128E1
:102C900004D1FFF777FF00204C4988704B48C0787B
:102CA000012804D1FFF76FFF00204849C87047484A
:102CB0000079012804D1FFF767FF0020434908711C
:102CC00042484079012804D1FFF75FFF00203F49C7
:102CD00048713E488079012804D1FFF790FF002019
:102CE0003A4988713948C079012804D1FFF788FF33
:102CF00000203649C8713548007A012804D1FFF711
:102D000080FF0020314908723048407A012804D100
:102D1000FFF7B1FF00202D49487210BD012802D0F5
:102D2000022808D103E02E4981ED000B04E02D4973
:102D300081ED000B00E000BF00BF704770B52DEDC6
:102D4000028B05460C46284603F02AFCB0EE408A6A
:102D5000F0EE608A2046FFF7E1FFBDEC028B70BD0C
:102D600010B52DED028B0446204603F019FCB0EEA1
:102D7000408AF0EE608A1A4890ED001BB0EE410ADE
:102D8000F0EE610A53EC102B51EC180B03F06CFDC4
:102D9000134A03C2204603F003FCB0EE408AF0EE73
:102DA000608A104890ED001BB0EE410AF0EE610A17
:102DB00053EC102B51EC180B03F056FD094A03C2DB
:102DC000074890ED001B19E000140040100300209C
:102DD0000040014000440140D0020020F0020020E9
:102DE00088010020C8010020616E676C65313A00DF
:102DF000616E676C65323A009C824142B0EE410AD6
:102E0000F0EE610A9FED281B53EC112B51EC100BD7
:102E100004F00EF905D29FED240B254880ED000B40
:102E200014E0234890ED001BB0EE410AF0EE610A79
:102E30009FED201B53EC112B51EC100B03F0BEFF48
:102E400004D29FED1C0B1A4880ED000B1B4890ED3F
:102E5000001BB0EE410AF0EE610A9FED131B53EC2C
:102E6000112B51EC100B04F0E3F805D29FED0E0B83
:102E7000124880ED000B14E0104890ED001BB0EEFE
:102E8000410AF0EE610A9FED0B1B53EC112B51EC44
:102E9000100B03F093FF04D29FED060B074880ED63
:102EA000000BBDEC028B10BD0000000000806640EE
:102EB000880100200000000000000000C801002080
:102EC00010B52DED0A8B0446B0EE408AF0EE608A14
:102ED00094ED001BB0EE410AF0EE610A53EC182BA2
:102EE00051EC100B04F0DAF8C4E90A0194ED0A2B56
:102EF000B0EE420AF0EE620A94ED0C2BB0EE421AEC
:102F0000F0EE621A53EC102B51EC110B03F0ACFCF9
:102F1000C4E90C0194ED082BB0EE420AF0EE620A0F
:102F200094ED0A2BB0EE421AF0EE621A53EC102B1D
:102F300051EC110B04F0B2F841EC1B0B94ED061BA5
:102F4000B0EE410AF0EE610A53EC102B03F072FF71
:102F500041EC190B94ED042BB0EE420AF0EE620A3C
:102F600094ED0C2BB0EE421AF0EE621A53EC102BDB
:102F700051EC110B03F05EFF41EC1B0B94ED0A2B9F
:102F8000B0EE420AF0EE620A94ED022BB0EE421A65
:102F9000F0EE621A53EC102B51EC110B03F04AFFC8
:102FA00041EC1C0B53EC1B2B03F05EFC41EC1A0BA9
:102FB00053EC192B03F058FCC4E90E0194ED0A0BF5
:102FC00084ED080BBDEC0A8B10BD000010B5FD4B65
:102FD00019600023FC4CC4F8A832002214E000233E
:102FE000FA4C236000F080031BB10123241D2360F1
:102FF00003E00023F54C241D23600123F34C2360E0
:103000004306180E531CDAB2082AE8DB0123ED4C04
:1030100008342360EC4CC4F8A03210BD30B5002455
:103020001CE004F1B001C8B20021FFF7CFFF00217E
:103030000846FFF7CBFF00211020FFF7C7FF002550
:1030400008E0E34901EBC501085D0121FFF7BEFF80
:10305000681CC5B2802DF4DB601CC4B2082CE0DB18
:1030600030BD30B504460D4605F1B001C8B20021AF
:10307000FFF7ACFF102141EA14100021FFF7A6FF73
:1030800004F00F0141F001000021FFF79FFF30BD68
:1030900000B500218D20FFF799FF00211420FFF7D4
:1030A00095FF0021AF20FFF791FF00BD00B5002183
:1030B0008D20FFF78BFF00211020FFF787FF0021F5
:1030C000AE20FFF783FF00BD30B500240CE00025E3
:1030D00006E00020BE4901EBC5010855681CC5B2D9
:1030E000802DF6DB601CC4B2082CF0DBFFF796FFE6
:1030F00030BDF0B5144600267F2801DC3F2900DDF5
:10310000F0BD0B46CF1701EB5777FF10C7F107074C
:10311000FAB2CF1701EB5777FF10A1EBC707FDB24B
:10312000C5F107070123BB40DEB24CB1A84B03EB4E
:10313000C0039B5C3343A64F07EBC007BB5408E0BA
:10314000A34B03EBC0039B5CB343A14F07EBC0074A
:10315000BB5400BFD4E72DE9F04706460F46904622
:103160009946DDF820A034460CE03D4606E0524684
:1031700029462046FFF7BDFF681CC5B24D45F6DD68
:10318000601CC4B24445F0DDFFF748FFBDE8F0879E
:103190002DE9F84F80460F4616461C46BA46204693
:1031A000E31704EB5373DB1021464FEAE47C04EB96
:1031B0005C7C4FEAEC0CA4EBCC0CBCF1000F02D011
:1031C0004FF0010C01E04FF0000C6344224604EB89
:1031D000D27C4FEA6C0C03FB0CF303F0FF0BA6F15F
:1031E0002000C6B200254EE00C2C07D106EB4600AD
:1031F000784901EB8000405D009013E0102C05D170
:10320000754800EB0610405D00900BE0182C07D1CC
:1032100006EBC600714901EB8000405D009001E0C3
:10322000BDE8F88F4FF0000927E0009800F080001B
:1032300028B1394640460A9AFFF75BFF09E00A9831
:1032400008B9012000E00020024639464046FFF759
:1032500050FF00984006000E0090781CC7B2A7EB04
:103260000A00A04205D1574608F1010000F0FF080E
:1032700006E009F1010000F0FF09B9F1080FD4DB05
:1032800000BF681CC5B25D45AEDB00BFC8E710B526
:103290000246012000E050430B1EA1F10104E1B2FF
:1032A000F9D110BD2DE9FF4F81B0074691461E466A
:1032B0000E9D4FF0000A002439E0301B401EC1B2C1
:1032C0000A20FFF7E4FFB9FBF0F00A21B0FBF1F2AE
:1032D00001FB1208BAF1000F16D1701EA04213DDD7
:1032E000B8F1000F0ED10120AB4605EBDB714910A0
:1032F00001FB04710090C8B22B4620220299FFF70F
:1033000047FF12E04FF0010A0120AB4605EBDB71ED
:10331000491001FB04710090C8B208F13001CAB233
:103320002B460299FFF734FF00BF601CC4B2B442C1
:10333000C3DB05B0BDE8F08FF8B506460F4615466D
:103340001C4621E004EBD4714910C1F18001B14267
:1033500002DA00263819C7B2C4F14000B84204DAD4
:10336000002006460746FFF7AFFE012000902A78AE
:10337000234639463046FFF70BFF204604EBD07159
:1033800006EB6101CEB26D1C28787E2802DC28781D
:103390002028D7DAF8BD2DE9F84F80460E461746AB
:1033A0001C46B2462046E21704EB5272D210214668
:1033B000E31704EB5373DB10A4EBC30383B10123C6
:1033C0000FE00000A00242420000424280824042E0
:1033D0001A0300206C740008E0780008D07E000812
:1033E00000231A44624302F0FF0B0C2C05D0102C72
:1033F00003D0182C01D0BDE8F88F002549E00C2C33
:1034000005D1A14800EB4710405D009010E0102C62
:1034100005D19D4800EB4710405D009008E0182C56
:1034200005D1994800EB4710405D009000E0E2E7CD
:103430004FF0000927E0009800F0800028B13146E5
:1034400040460A9AFFF755FE09E00A9808B901209C
:1034500000E00020024631464046FFF74AFE009851
:103460004006000E0090701CC6B2A6EB0A00A042F7
:1034700005D1564608F1010000F0FF0806E009F109
:10348000010000F0FF09B9F1080FD4DB00BF681C90
:10349000C5B25D45B3DB00BFADE72DE9F04F064691
:1034A0000F4690461C46DDF824A04FF0000BE117B4
:1034B00004EB5171C910A4EBC10131B92046E117E9
:1034C00004EB5171C1F3C70506E02046E11704EB98
:1034D0005171C910491CCDB23D4616E0294630460F
:1034E000FFF7BFFDB1460CE059464A1C1FFA82FBAC
:1034F0001AF801000121FFF769FD09F1010000F050
:10350000FF09C145F0DB681CC5B2A542E6DBBDE89A
:10351000F08F1CB501211220FDF7DEFB01208DF894
:103520000400032000908DF8050000208DF80600AF
:1035300001208DF8070069465448FDF72FF9032153
:103540005248FDF7A7F94FF4B06000906946504823
:10355000FDF724F94FF4B0614D48FDF79BF90120C8
:103560004C4908606420FEF7E9FD00204A49C1F893
:103570009C026420FEF7E2FD01204649086000211C
:10358000AE20FFF723FD0021D520FFF71FFD00210E
:103590005020FFF71BFD0021A820FFF717FD002199
:1035A0003F20FFF713FD0021D320FFF70FFD00217F
:1035B0000846FFF70BFD00214020FFF707FD002123
:1035C0008D20FFF703FD00211420FFF7FFFC0021F1
:1035D0002020FFF7FBFC00210220FFF7F7FC002171
:1035E000A120FFF7F3FC0021C020FFF7EFFC002132
:1035F000DA20FFF7EBFC00211220FFF7E7FC0021A7
:103600008120FFF7E3FC0021EF20FFF7DFFC002122
:10361000D920FFF7DBFC0021F120FFF7D7FC0021C8
:10362000DB20FFF7D3FC00213020FFF7CFFC002187
:10363000A420FFF7CBFC0021A620FFF7C7FC002148
:10364000AF20FFF7C3FCFFF73FFD1CBD30B52DEDEC
:10365000048B83B004460D46B0EE408A18EE100A83
:1036600003F006FE41EC190B53EC192B0BA1684635
:1036700000F0BEFF0C236A4629462046FFF75CFE99
:1036800003B0BDEC048B30BD2C8C0008000402405C
:10369000001002409C0242420000424225352E3278
:1036A0006600000010B58CB004461E230BAA03A9C7
:1036B000204600F093FD0090009810B101200CB05E
:1036C00010BD9DF82C00044400200B900EE0BF4874
:1036D0009DF82C2050F8221003A800F0E7FC00B958
:1036E00008E09DF82C00401CC0B20B909DF82C0007
:1036F0000728ECD300BF9DF82C0007287BD2DFE819
:1037000000F004052A4C7BA6D10000BFB0A000F059
:1037100063FFB0A000F060FFBEA000F05DFFC4A09A
:1037200000F05AFFC7A000F057FFCBA000F054FFF5
:10373000D3A000F051FFDD4800F04EFFDC4800F060
:103740004BFFDCA000F048FFE9A000F045FFF2A02D
:1037500000F042FFD3E09EA000F03EFFFE4800F0E4
:103760003BFF00200B900EE0FC4800689DF82C20E9
:1037700000EBC2004168FAA000F02EFF9DF82C007B
:10378000401CC0B20B90F548007D9DF82C1088427B
:10379000EADC8FA000F020FFB1E08DA000F01CFF5C
:1037A000F14800F019FF00200B901AE0EB4909687E
:1037B0009DF82C2001EBC20101AB02AA486803A9C5
:1037C00000F032FDE54800689DF82C1050F83120DB
:1037D00003A9E6A000F000FF9DF82C00401CC0B239
:1037E0000B90DE48007D9DF82C108842DEDC78A02E
:1037F00000F0F2FE83E080E075A000F0EDFE0BAA81
:1038000003A9204600F0ECFD9DF82C00C8B96946DC
:1038100003A800F07EFC0B909DF82C0020B9D8A0E6
:10382000009900F0D9FE0EE09DF82C00042801D08C
:10383000022044E7D5A000F0CFFE0120C749C8759B
:1038400001E002203BE762A000F0C6FE57E060A066
:1038500000F0C2FE0BAA03A9204600F0C1FD9DF8AE
:103860002C00C8B9694603A800F053FC0B909DF8E2
:103870002C0020B9C9A0009900F0AEFE0EE09DF822
:103880002C00042801D0022019E7C7A000F0A4FEF4
:103890000020B249C87501E0022010E74CA000F0FA
:1038A0009BFE2CE04AA000F097FE0BAA03A920463D
:1038B00000F096FD9DF82C00C8B9694603A800F0F9
:1038C00028FC0B909DF82C0078B9A449009881F849
:1038D000EC00084690F8EC0018B1B7A000F07CFEB0
:1038E00007E0BCA000F078FE03E00220E7E602203B
:1038F000E5E637A000F070FE01E00120DFE600BF42
:103900000020DCE610B50121B948FEF79BF84FF620
:10391000FF71B748FDF72CFC0021B548FDF726FCE8
:1039200000208E49C1F8F00010BD10B50121B0484B
:10393000FEF77FF8012808D18848D0F8F0004FF64C
:10394000FF7108448549C1F8F000A948FDF712FC51
:103950008249D1F8F01008448049C1F8F0000846C7
:10396000D0F8F00010BD10B50121A148FEF76DF8A8
:1039700001280AD179490869804700219C48FDF750
:10398000F5FB64219A48FDF7F3FB01219848FEF707
:103990006DF810BD7FB504460D4601211020FDF7DE
:1039A000E4F9ADF804500020ADF806000294ADF83B
:1039B0000C008DF80E0001A98D48FDF78EFB01214A
:1039C0008B48FEF73FF80122114613E1300000203A
:1039D0000D0A00002D2D2D2D2D2D2D2D2D2D2D2DB4
:1039E0002D2D2D2D2D2D2D2D2D2D2D2D55534D4185
:1039F00052542056332E312D2D2D2D2D2D2D2D2D84
:103A00002D2D2D2D2D2D2D2D2D2D2D2D2D2D2D20F3
:103A10000D0A000055534D41525420686173203700
:103A200020636F6D6D616E64733A0D0A00000000D3
:103A30003F3A2020202020206765742068656C7044
:103A40000D0A000068656C703A20202067657420BC
:103A500068656C700D0A00006C6973743A20202050
:103A60006C6973742074686520617661696C616249
:103A70006C65206D6574686F640D0A0A00000000B3
:103A800069643A20202020206C6973742074686572
:103A9000204944206F6620617661696C61626C65C3
:103AA000206D6574686F640D0A0A0000148E0008AA
:103AB000BC8D000872756E74696D653A312C747531
:103AC000726E206F6E207468652072756E74696DF9
:103AD000653B302C7475726E206F66662074686565
:103AE0002072756E74696D653B0D0A0A0000000056
:103AF00073656E6420796F757220636F6D6D616E92
:103B000064207769746820616E2027456E74657241
:103B1000272E0D0A000000002D2D2D2D2D2D2D2DD1
:103B20002D2D2D2D2D2D414C49454E54454B206DAD
:103B30006F646966696564206279207768696C657D
:103B4000306C312D2D2D2D2D2D2D2D2D2D2D2D2D5F
:103B50002D2D2D2D200D0A00B08E00089400002080
:103B600025730D0A000000006C8E00082573206983
:103B7000642069733A0D0A3058253038580D0A0010
:103B80004845583A305825580D0A00006865782095
:103B9000646973706C6179210D0A00004445433AF1
:103BA000256C750D0A0000006465632064697370FC
:103BB0006C6179210D0A000052756E2054696D65A3
:103BC0002043616C63756C6174696F6E204F4E0D9C
:103BD0000A00000052756E2054696D652043616CC7
:103BE00063756C6174696F6E204F46460D0A000064
:103BF00000100040F648FDF711FF0121F448FDF7E1
:103C0000F5FA36208DF8000003208DF801008DF8BC
:103C1000020001208DF803006846FCF7CEFC7FBD52
:103C200010B5044604EBC40000EB04100122C2EB03
:103C3000800081B24FF47A70FFF7ACFE0120E549B5
:103C4000C87510BD30B595B0054613AB12AA09A9C9
:103C5000284600F0E9FA044614B1204615B030BDFC
:103C60000020149026E0DB4909689DF8502001EB04
:103C7000C20113AB11AA486801A900F0D5FA0446A5
:103C80000CB12046EAE709A901A800F00FFA60B9D3
:103C90009DF844009DF84810884201DD0220DDE7D0
:103CA0009DF85000CB4988750AE09DF85000401CF3
:103CB000C0B21490C748007D9DF850108842D2DCF5
:103CC00000BFC448007D9DF85010884201D10420F7
:103CD000C4E714A9284600F0F4FB04460CB12046C2
:103CE000BCE79DF85000BB4948750020B6E72DE9B8
:103CF000F0419AB0B748847D007DA04202DC1AB042
:103D0000BDE8F081B349096801EBC40106AB07AA1D
:103D1000486808A900F088FA08A9AFA000F05CFC88
:103D2000002644E0AB48008B0121B1400840D8B1E7
:103D30002221ABA000F050FC304600F0B5FBA549B5
:103D4000243147183946A7A000F046FC2221A4A040
:103D500000F042FC304600F0A7FB9E4924310844A5
:103D600010A941F8260018E0304600F09DFB994963
:103D70002431085810A941F826009648C07D30B972
:103D800010A850F8261098A000F026FC05E010A816
:103D900050F8261095A000F01FFC9DF81C00401E56
:103DA000B04202D093A000F017FC701CC6B29DF880
:103DB0001C008642B6DB90A000F00EFCFFF7A2FDCF
:103DC0008448407D0B280DD2DFE800F0060D151E5B
:103DD00027323F4E5F7287007E49096851F83400F0
:103DE0008047054690E07B4A126852F834101098DC
:103DF0008847054688E0774B1B6853F83420DDE997
:103E00001001904705467FE0724F3F6857F8343005
:103E100010A807C89847054676E0DFF8B8C1DCF877
:103E200000C05CF8347010A80FC8B84705466BE0B6
:103E30001498DFF8A0C10090DCF800C05CF8347082
:103E400010A80FC8B84705465EE0DDE91401DFF8A9
:103E500084C1CDE90001DCF800C05CF8347010A822
:103E60000FC8B84705464FE0DDE914121698DFF891
:103E700064C1CDE900120290DCF800C05CF8347037
:103E800010A80FC8B84705463EE0DDE91423DDE978
:103E90001610DFF840C1CDE90023CDE90210DCF8AF
:103EA00000C05CF8347010A80FC8B84705462BE076
:103EB000DDE91523DDE91710CDE90123CDE9031074
:103EC0001498DFF810C10090DCF800C05CF8347082
:103ED00010A80FC8B847054616E0DDE91623DDE94E
:103EE0001810CDE90223CDE90410DDE91401DFF853
:103EF000E4C0CDE90001DCF800C05CF8347010A823
:103F00000FC8B847054600BF00BFFFF70EFD9DF87C
:103F1000180001280CD12F48C07D20B9294637A0B0
:103F200000F05AFB07E0294636A000F055FB02E0FE
:103F300033A000F051FB274890F8EC0088B12548E9
:103F4000D0F8F0000A21B0FBF1F201FB1207214882
:103F5000D0F8F000B0FBF1F83A4641462CA000F052
:103F60003BFB00BFCBE670B53148008800F4004051
:103F700000282CD02E48057800202E494855154899
:103F800081682C48884704461CB91249C868804794
:103F900076E02848FFF786FB0546012D00D02C4629
:103FA000002C6DD0012C06D0022C08D0032C0AD096
:103FB000042C64D15FE020A000F00EFB5FE022A0A3
:103FC00000F00AFB5BE025A000F006FB57E05AE09A
:103FD00000100040940000200D0A25732800000006
:103FE0002563000025730000256C750030582558A6
:103FF000000000002C000000290000003D256C7529
:104000003B0D0A003D305825583B0D0A00000000CA
:1040100046756E6374696F6E2052756E2054696DBB
:10402000653A25642E2531646D730D0A0000000089
:104030002C000020080200206D6574686F64206504
:1040400072726F72210D0A00706172616D65746524
:1040500072206572726F72210D0A0000746F6F20FA
:104060006D75636820706172616D6574657273212E
:104070000D0A000004E007A000F0AEFA00BF00BF88
:1040800000200949088070BD01460868704701603A
:10409000704700006D6574686F64206E6F742066F1
:1040A0006F756E64210D0A002C00002002460AE0A4
:1040B00010780B78984201D001207047107800B931
:1040C00002E0521C491CF3E700BF0020F5E706E0C0
:1040D00002780A70027802B902E0401C491CF7E736
:1040E00000BF70470146002005E00A7802B903E0EE
:1040F000421CD0B2491CF8E700BF704710B5024619
:10410000012000E050430B1EA1F10104E1B2F9D1FE
:1041100010BD2DE9F04307460E4600254FF00A0872
:104120003C46002030601FE02078392802DC2078EF
:1041300030280ADA2078462802DC2078412804DA80
:104140002078582809D1012D07D12078412801DB9A
:104150004FF01008681CC5B205E0207800B904E0F3
:104160000120BDE8F083641CDEE700BF3C46B8F1E7
:10417000100F0FD1032D01DA0220F2E7207830284A
:1041800006D16078582803D1A41CA81EC5B204E04B
:104190000320E6E70DB90420E3E71BE00DB1681E3C
:1041A000C5B22078392806DC2078302803DB207857
:1041B000A0F1300902E02078A0F1370929464046F5
:1041C000FFF79CFF316809FB00103060641C207809
:1041D00000B900E0E2E700BF0020C2E710B50446E6
:1041E000002010700BE020780870641C491C1078C7
:1041F000401C10701078984201DB012010BD20781F
:10420000202802D020780028EDD10020087000BFBF
:10421000F4E70146491C00E0491C0878202801D138
:104220000029F9D1087870472DE9FF4F85B0804605
:1042300089460027002004900390012002904FF04F
:10424000000B002544461DE02078202816D005F0FC
:104250007F00052812DA0DB945F0800505F07F00D2
:10426000042803D120782A2800D00EE0207805F019
:104270007F010DF80100681CC5B202E0852D00D158
:1042800003E0641C20780028DED100BF8DB100203F
:1042900005F07F010DF80100CBA16846FFF706FF8E
:1042A00018B900210898017002E0012108980170F6
:1042B00000254FF0000A444614E0641C0AF1010096
:1042C00000F0FF0A2078202802D020782A2809D17F
:1042D0002046FFF79EFF0646282E03D02A2E01D047
:1042E000CDF810A02078282802D020780028E4D12A
:1042F0004446049810B10498401C04444FF0000A4E
:10430000002654E0207810B94FF0010A50E02078E0
:10431000282803D116B9781CC7B213E020782928C1
:1043200008D13EB917B1781EC7B201E04FF0010ABB
:1043300047B93DE02078222804D10EB9012000E0E1
:104340000020064647B9207820282FD0207889F809
:10435000000009F1010929E020782C2804D101206E
:104360000290681CC5B214E02078202811D0207873
:1043700028280ED04DB9BBF1050F06DA20780DF8CC
:104380000B000BF1010000F0FF0B0298401CC0B2C3
:104390000290012F0AD10298022807D10298401CEE
:1043A000C0B202900398401CC0B20390641CA9E7FD
:1043B00000BF0398012809D100200DF80B0082A14D
:1043C0006846FFF773FE08B9002003900799039829
:1043D0000870002089F80000504609B0BDE8F08F51
:1043E000F0B503461546002000220026002455E0C3
:1043F0001F782C2F01D104B901221F78292F01D059
:104400001F780FB904B94AE0002E34D11F78302F3D
:1044100002DB1F78392F11DD1F78612F02DB1F7837
:10442000662F0BDD1F78412F02DB1F78462F05DD3D
:104430001F78582F02D01F78782F0CD102B12EE0B0
:104440001F78612F03DB1F78203F0F7001E01F787A
:104450000F70491C1FE01F78222F04D102B11EE00B
:104460000126012417E01F78202F14D01F782C2F4D
:1044700011D0FF2613E01F78222F00D1002402B1B3
:104480000DE044B11F785C2F02D15B1C471CF8B2D1
:104490001F780F70491C471CF8B25B1CA8E700BFCF
:1044A00000270F702E70F0BD02460020002105E0AD
:1044B000474B5B5C0344D8B24B1CD9B29142F7DB4B
:1044C00070472DE9F043B5B005460F46002400269D
:1044D00004E000213E488155701CC6B20A2EF8DB6C
:1044E00006E06D1C287818B9012035B0BDE8F083CE
:1044F00028782828F5D16D1C61E034AA6946284641
:10450000FFF76EFF064635449DF8D00020B1012824
:1045100027D0FF284CD149E09DF8000000B333A913
:104520006846FFF7F6FD06460EB10220DDE720469D
:10453000FFF7BAFF26490A31339A0A50A1F1240045
:10454000008B0121A140884321491A3908830421A5
:104550001F480155601CC4B20A2C01DD0320C4E7CA
:1045600026E06846FFF7BEFD401C00F0FF0820462D
:10457000FFF79AFF16490A3100EB010949466846E0
:10458000FFF7A5FD12481A38018B0120A040014316
:1045900088B20F491A3908830D4800F80480601C5E
:1045A000C4B20A2C01DD03209FE701E002209CE752
:1045B00000BF2878292801D0287800B900E09CE7BE
:1045C00000BF3C70002090E7766F69640000000037
:1045D000AE000020704700000FB4044910B503AAD4
:1045E000029800F041FC10BC5DF814FB280000208C
:1045F0000FB41CB5074B06AA7B446946009005988A
:1046000000F003FC0020694600F012FC1CBC5DF8C1
:1046100014FB00003508000070B504468569006889
:10462000C10601D5302600E02026C00707D070BDA6
:10463000D4E9012130469047206A401C20626D1E5B
:10464000F6D570BD70B5044685690078C00707D1FE
:1046500070BDD4E9012120209047206A401C2062CF
:104660006D1EF6D570BD70B50C460546012A05D005
:104670002878800600D5EA69002302E0012305E0DE
:104680005B1C934202D2E05C0028F9D1A869E618CD
:10469000C01AA861286A184428622846FFF7BCFFA0
:1046A00004E0D5E9012114F8010B9047B442F8D396
:1046B0002846FFF7C7FF70BD2DE9F04106460024EC
:1046C00010687529314616A510D0AFF30080002878
:1046D00002DA404213A507E031688A0701D512A526
:1046E00002E0490704D511A5012401E0AFF30080E1
:1046F00000210A2206F1240709E0B0FBF2FCB0FB1E
:10470000F2F302FB1C00303078541846491C002894
:10471000F3D123462A463046BDE8F04100F007B900
:10472000000000002D0000002B0000002000000011
:1047300070B504460D4621461068AFF3008021880D
:10474000090502D50F4A7A4402E00E4A7A440E3235
:10475000002104F1240305E000F00F060009965D36
:104760005E54491C0028F7D120780023000704D5A7
:10477000702D02D009B1022311322046BDE87040ED
:1047800000F0D5B8A24500002DE9F05F8946044647
:104790004FF0000ADFF874B1FB44C0F820A02046B7
:1047A000E1688847002874D0252806D0D4E9012183
:1047B0009047206A401C2062F1E700265F462046B1
:1047C000E16888472028054607DB312D05D2781996
:1047D00010F8200C08B10643F1E7B00701D526F028
:1047E0000406C4F81CA00027C4F818A02A2D09D07C
:1047F000284601F08CFF38B304EB8708303DC8F839
:10480000185019E059F8041B204604EB8702916107
:10481000E1688847012F054618D1E069002820DAB1
:1048200026F020061DE0D8F8180000EB800005EB0C
:1048300040003038C8F818002046E168884705462F
:1048400001F065FF0028EED1012F0AD02E2D08D1EE
:104850002046E16888477F1C0546022F46F0200667
:10486000C4DBA069002803DA404246F00106A061DB
:10487000F00701D026F010066C2D0BD0682D09D062
:104880004C2D39D06A2D35D0742D35D07A2D33D0BA
:1048900016E038E0E1682F4620468847B8420546D2
:1048A00009D16C2F26D04FF48060E1680643204682
:1048B0008847054604E06C2F1AD04FF480700643F9
:1048C0000DB3A5F14100192802D8203546F4006641
:1048D0004A462946204626604E46FBF7AFFC80B18B
:1048E00001280BD0F61D26F0070000F1080956E755
:1048F0004020E4E78020D8E70020D6E706F104094D
:104900004DE7284652E7206ABDE8F09F7845000051
:10491000704770477047704710B500F00DFB006896
:1049200010BD10B5044600F007FB046010BD2DE972
:10493000F0470D4699469246044600F12408016866
:10494000880604D5E06921F01001216000E0012013
:10495000A84201DD471B00E00027A1697A1902EB9C
:104960000900081AA0612078C00602D42046FFF78B
:1049700053FE002608E0D4E901211AF8060090470A
:10498000206A401C761C20624E45F4DB2078C0066D
:104990000AD52046FFF740FE06E0D4E90121302089
:1049A0009047206A401C2062381EA7F10107F4DC02
:1049B00007E0D4E9012118F805009047206A401C5F
:1049C0002062281EA5F10105F3DC2046FFF73AFE20
:1049D0002078000602D50220BDE8F0870120FBE721
:1049E00070472DE9FF4F0C461E464FF0FF378BB046
:1049F000D2E90001DDF860800A908A46C1F30A55C9
:104A000005B93D46002108464FF00000BAF1000FFD
:104A100000F4400005DA00EB80004FF4400101EAA9
:104A200050004FEA9059B9F1010F00DDB9460A98DC
:104A300050EA4A000ED044F61050A5F2FF35454327
:104A40002F14B8F1000F1ED07542291E1EDDC9F1CA
:104A500000021CE0B8F1010F4FF0000001D030213E
:104A600003E0F24305E02154401CB042FBDB30463A
:104A70000022002121540B99C1F80880C1E90020CF
:104A80000FB0BDE8F08FBD1B6D1CDEE74A4600DAB3
:104A9000694206A800F002FB06AB93E8070003ABEF
:104AA00083E8070050460A9901F0B1F88DE8070045
:104AB000A0F500501F3800900398002D0ADD42F247
:104AC0001F014A460844002303A90390684601F0E9
:104AD0005DFB09E0A0F500504A461F38002303A9FA
:104AE0000390684601F07CFB8DE807000004000C91
:104AF00003D04FF0FF30410800E01046B8F1000F3E
:104B000003D00022009215461EE0751E05D400F069
:104B100017FA303262556D1EF9D5B34601220843AB
:104B200002D000227F1C04E02078302801D100222E
:104B30007F1E002A099784D01DE0112D07DA00F0AE
:104B4000FFF9303262556D1C50EA0102F5D108437D
:104B500002D00098C8B10EE00021681E05E0235C79
:104B6000625C63542254401E491C8142F7DBAB4611
:104B7000A81B401E0990002004F80B000B98099A0E
:104B8000C0F80880C0E9002B7AE711264FF0000832
:104B900057E72DE9F04F88460446D21D22F0070161
:104BA00091B0D1E90001CDE90A0101F065FC0246AE
:104BB0000B98C00F01D02D2007E02068810701D598
:104BC0002B2002E0202101EAC000032A099001D035
:104BD000072A05DB03464146204600F0FFF90BE1BA
:104BE0002078800601D5E06900E00620B8F1650F65
:104BF000814606D0B8F1660F18D0B8F1670F70D1B2
:104C000031E00020B9F1110F009001DB112301E028
:104C100009F101030AAA01A90CA8FFF7E2FEDDE9E8
:104C20000C70002609F10105834647E001204B4640
:104C300000904FF000470AAA01A90CA8FFF7D1FE87
:104C4000DDE90DB00C995D46002610B909F10100AF
:104C50000D18B9EB050003D4C0F1FF3609F10105C9
:104C6000A5EB09002BE0B9F1010F01DA4FF00109C2
:104C70000020B9F1110F0090484601DD112300E03A
:104C800003460AAA01A90CA8FFF7ABFEDDE90C70E8
:104C90004D4600268346207800070AD4AB4500DA4B
:104CA0005D4601A8012D04DD411911F8011C3029D0
:104CB00007D04F4502DA17F1040F04DA01208246CB
:104CC0000FE06D1EEEE7002F02DCED1B3E4403E01B
:104CD000781CA84200DD7D1CB81B00F1010A4FF0D2
:104CE00000472078000703D4AA4501DB4FF0FF3AC4
:104CF0000021B7F1004F0DF143088DF8431024D087
:104D000002202B23002F01DA7F422D230A21021ECD
:104D1000A0F1010000DC5FB197FBF1FC97FBF1F221
:104D200001FB1C7C17460CF1300C08F801CDEEE7B6
:104D3000A8F1010003702188090501D5452100E093
:104D40006521A0F1010800F8011C09980FA9A1EB49
:104D50000807FF1D00B10120411901EBEA70A169AC
:104D60003844081A401EA0612078C00602D42046AC
:104D7000FFF752FC099828B1D4E901219047206A35
:104D8000401C20622078C00622D52046FFF744FC54
:104D90001EE0002E04DBB34502DD01A8805D00E0CB
:104DA0003020D4E901219047206A401C2062761C03
:104DB000AAF101005FEA000A0AD100F0B9F8C06860
:104DC0000168405CD4E901219047206A401C2062C0
:104DD000281EA5F10105DCDC07E0D4E9012118F863
:104DE000010B9047206A401C2062381EA7F1010782
:104DF000F3DC2046FFF726FC032011B041E600005B
:104E000001694A1C02610878704700B58FB0CDE98E
:104E100001310021059105497944CDE9031011467E
:104E20006846FFF7B1FC0FB000BD0000E5FFFFFFD3
:104E30000A6802F8010B0A60704710B5436913B1A4
:104E4000AFF3008001E0FFF70EFC012010BD1278E7
:104E500000F124010A7000224A700122EDE7116876
:104E60004FF0FF32E9E70000074B70B50D467B4479
:104E7000FFF7CBFF0446284600F082F910B14FF04F
:104E8000FF3070BD204670BD0FD3FFFF0FB400236D
:104E900000B589B00CA900910B99CB60214B7B44E4
:104EA0000693214B7B44079304236FF00042CDE926
:104EB00001321E4A7A446B4608920246002002F0F4
:104EC000B7FA09B05DF814FB70B506464FF0FF3035
:104ED00015460C46324686B00091CDE9010169467F
:104EE0000020049004A8FFF7D1FF0246049821187F
:104EF00025B108B1084600E0204628600498002843
:104F00000DD0002A02DD0098884208D03246081BE6
:104F100069460094CDE9010404A8FFF7B7FF06B085
:104F200070BD0000BB010000D301000013010000B0
:104F3000004870473C070020004870471C070020CD
:104F400030B5B0F10A024FEA900E71F100034EEA5B
:104F5000817EB0EB0E0061EB91014FEA101E4EEA2C
:104F6000017E10EB0E0041EB11114FEA102E4EEABC
:104F7000016E10EB0E0041EB11214FEA104E4EEA8C
:104F8000014E10EB0E0041EB1141401841F10001C0
:104F90004FEAD00040EA41704FEAD10110EB8005A2
:104FA0004FEA810444EA907444EB01046D1944EB28
:104FB0000404521BA3414FF0000348BF0A3200D53E
:104FC00030BD401C41F1000130BD10B5044600F079
:104FD00005F90068005D00F0010010BD2DE9F04109
:104FE0001F46044603260168072A01F4006004DB1B
:104FF00008B116A505E016A503E008B115A500E067
:1050000015A521F010002060A069C01EA0610FB19D
:10501000401EA0612046FFF7FFFA4FB1D4E90121FD
:1050200038469047206A401C2062C01C206206E07F
:10503000206AFAE7D4E9012115F8010B9047761EA2
:10504000F8D22046FFF7FEFABDE8F0814E414E004F
:105050006E616E00494E4600696E6600426842B15C
:10506000016811F8013B23B1521EC0E90012184635
:1050700070470121C160881E704742685AB1C368F9
:10508000016843B983688B4205D0491E521CC0E9B0
:105090000012002070474FF0FF3070472DE9F047B5
:1050A000814616468AB0354878440DC88DE80D0013
:1050B00032487844801C03AC0DC884E80D0041F6EA
:1050C0009B300844372190FBF1F290FBF1F5A5F1FC
:1050D000800501FB12041B3C02D56442012000E064
:1050E0000020DFF898A080460027FA44AAF1BE0A03
:1050F0000EE0E0070AD03246684607EB470101237D
:105100000AEB810101F06CF88DE8070064107F1C48
:10511000002CEED1194F7F44AE3F19E0E80715D0BF
:1051200007EB04100DF1180A90E80E008AE80E0053
:10513000C068F04201D1981908903246012306A9AF
:1051400003A801F04DF803AB83E807006D10641C61
:10515000002DE3D14FF0010332466946B8F1000F4C
:1051600003A802D001F012F801E001F039F8C9E912
:105170000001C9F808200AB0BDE8F087F83C00003B
:10518000007B00F080007047004870471C0700203B
:105190007546FFF7F9FFAE4605006946534620F015
:1051A0000700854618B020B5FBF7F0F9BDE82040B0
:1051B0004FF000064FF000074FF000084FF0000BD3
:1051C00021F00701AC46ACE8C009ACE8C009ACE886
:1051D000C009ACE8C0098D467047000010B5FFF764
:1051E000A7FE001D10BD00BFF11500002DE9FF4F07
:1051F00006468BB00878FF2806D0491C2D2805D01C
:1052000000244FF0000908E000200CE00124F8E73A
:1052100009EB8903491C00EB43090878FF28F7D103
:1052200014B1C9F100008146107800252C46AA4629
:1052300029462D2801D02B2804D1521C2D2813D00B
:10524000002082468B461078FF280FD04FF0000CCC
:105250000A21521CA5FB017804FB018105FB0C11FE
:10526000C5194BEB0104EEE70120EAE700210846EF
:105270004FF00000BAF1000F02D000EB80004008B0
:10528000C0F38157012F01DD4FF0FF370E9955EA2A
:10529000040009EB01080BD04FF0020918F5FA7F62
:1052A00016DA4FEACA70002F706008DD012007E0AF
:1052B0004FEACA70C6E900B00FB0BDE8F08F002019
:1052C0003060FFF739FEC0F800901821084616E05C
:1052D000B8F5FA7F18DD002F02DAF748784401E0CC
:1052E000F6487844D0E90010C6E9001040EACA70D8
:1052F0007060FFF721FEC0F80090142108460FB03F
:10530000BDE8F04F02F02FB8002108464FF0000032
:10531000B8F10001099002DAC7F1000200E03A4654
:1053200001DAC8F1000106A8FFF7B8FE06AB93E862
:10533000070003AB83E8070044F23E005BEA040188
:105340000090584604D144F21E012C465D4600915F
:10535000210C0904014306D10099240444EA1544B0
:105360002D041039009104F07F41014306D10099CA
:10537000240244EA15642D020839009104F07041BA
:10538000014306D10099240144EA15742D01091F37
:10539000009104F04041014306D10099A40044EA81
:1053A0009574AD00891E009104F00041084304D1BA
:1053B00000986D196441401E00904FF001033A4679
:1053C0006846B8F1000FCDE9014503A902DD00F000
:1053D0001CFF01E000F0EFFEBAF1000F04460D469D
:1053E00001D084F00044002108464FF000000999E4
:1053F00040F2FF77484010F00C0F07D124F0004036
:10540000284303D0C4F30A50B84212D1FFF794FDE9
:10541000C0F80090C4F30A50B8420AD1A8487844B2
:10542000D0E90010C6E9001004F0004108437060A4
:1054300042E7C6E900543FE72DE9FF4F1F464FF012
:10544000000A4FF0FF38454691B0D7E90146CDF844
:105450003CA0FFF76DFDC0680168405C1090B96921
:1054600012986D1C8847396A814688470028F6D112
:10547000B9F1FF3F0AD0002E24F4D06411DDB9F158
:105480002B0F08D0B9F12D0F0BD102E0404615B01B
:1054900013E744F48064B96912986D1C8847761E3E
:1054A0008146600504A901D52D2000E02B20002EA7
:1054B00001F1010B0DF130088DF810003FDDB9F15D
:1054C000690F08D0B9F1490F05D0B9F16E0F02D0BC
:1054D000B9F14E0F1CD13B4601A8009580E850025F
:1054E000DDE912126FF0020001F0A6FFC11CCED15F
:1054F0000EE0B96912986D1C884781461398761E94
:1055000044F4007405600F98401C002E0F9016DDC7
:10551000B9F1300FEDD0B9F1780F02D0B9F1580FD1
:105520000DD10F9801280AD13B46CDE90054DDE9A1
:105530001212001F029601F07DFFC11CA7D1109925
:1055400089453ED144F0800406E01399681CAAF115
:10555000010A44F400740860B9696D1C1298761E43
:10556000884730288146F0D02BE01099894505D135
:10557000200603D4761E44F0800418E0484601F06B
:10558000C6F808B3761E0DF123018B4544F4007470
:1055900008D2A9F130000BF8010B200607D5AAF1BB
:1055A000010003E0200602D40AF101008246A005B2
:1055B00002D51399681C0860B96912986D1C884758
:1055C0008146002ED1DC53E0002E51DDB9F1650F8C
:1055D00002D0B9F1450F4BD1A00549D5B9696D1C71
:1055E0001298761E24F440748847002E81460CDD04
:1055F0002B2804D0B9F12D0F07D144F48074B96978
:1056000012986D1C8847761E8146E00501D52D2134
:1056100000E02B2108F8011BCDF8008021E0761E68
:105620000DF13901884544F400740CD2A9F1300021
:1056300010F0FF0088F8000002D10099884509D9D0
:1056400008F1010806E0E00501D51E4801E042F23C
:105650000F708246B96912986D1C8847814613986D
:105660000560002E04DD484601F051F80028D6D12F
:10567000F96912988847FF2053468BF8000088F894
:10568000000000200A900B9004AA0CA90AA8FFF7BA
:10569000ADFDA00502D46FF00100F8E614F0240F70
:1056A00012D0E0071CD13868DDE90A12031D3B6007
:1056B0000068C0E9001213E0B83D0000AA3D0000F8
:1056C0006E3C0000F1D8FFFF0AA9684601F00CF813
:1056D000E00705D13868009A011D39600068026052
:1056E0002846D4E610B50446AFF300802046BDE856
:1056F0001040FAF7D4BD00004FF0013C50F8042BE5
:1057000051F8043B9A4221D1A2EB0C03934313EAD4
:10571000CC1317D150F8042B51F8043B9A4215D101
:10572000A2EB0C03934313EACC130BD150F8042BD8
:1057300051F8043B9A4209D1A2EB0C03934313EABC
:10574000CC13DBD04FF00000704700BFD01A01BA75
:10575000B1FA81F101F0180122FA01F0CB40C1F158
:105760002001DBB2C0B2C01A2CFA01F3D11A914366
:1057700011EAC311E6D170472DE9FF4F1F464FF0E4
:105780003C0987B04FF00042DDE9141001F1010837
:10579000DDF858A002EA40500390002005908346AF
:1057A000054604460490B969461E08988847AAF140
:1057B000010A0290BAF1000F3BDD02982E2815D0A5
:1057C000102100F016FA00282EDB4FF0010B05998E
:1057D000014317D0B9F1000F0BDB4A46C11700F0A7
:1057E000F5F905430C43A9F1040905E001200490F3
:1057F0000BE008B145F0010501200590049820B99F
:10580000361D02E0049800B1361FB969089808F106
:1058100001088847BBF1000FAAF1010A0290C9D024
:105820000999C1F80080C5E70298702808D050286F
:1058300006D0F96908988847BBF1000F14D04FE0F3
:10584000002002900120BBF1000F049009D0B9693B
:10585000089808F101088847AAF10109B9F1000F79
:1058600007DCF969089888476FF001000BB0BDE8C4
:10587000F08F2B2804D02D280CD14FF0FF3004904E
:10588000B969089808F101088847A9F10109B9F137
:10589000000FE6DD411CE4D00A2100F0AAF900283F
:1058A000DFDB029908F1010801EB810100EB410007
:1058B0000290B969089888470A2100F09AF9099A74
:1058C000A9F10109B9F1000FC2F8008001DD00283B
:1058D000E7DAF969089888470499029800FB01669D
:1058E00055EA040004D004F04041090002D006E06B
:1058F000039898E0A40044EA9574AD00B61E04F045
:105900000041080002D16D196441761E159810F00F
:10591000240F03D04FF00B095C4803E04FF0280937
:105920006FF07D008246564507DAAAEB06018944EE
:10593000B9F1410F01DD4FF0410901200021A9F12A
:10594000010200F043F9024628400B46214008437B
:1059500001D0012100E00021501E029143F1FF31EE
:1059600028402140084301D0012000E00020029996
:10597000834651EA0B014FD0002108464FF000004A
:10598000039900F4400039B100EB80004FF440016E
:1059900000EBD07001EA60008015012802DD4FF0B5
:1059A000FF3000E013D0401C36D0029860B3BBF14A
:1059B000000F0CD14A460120002100F007F92840D1
:1059C0002140084301D0012000E00020E0B1012087
:1059D0004A46002100F0FAF8034640190A466141A0
:1059E0002D1A8C4111D3B9F1400F09DD159810F033
:1059F000240F02D0AAF1340603E0AAF1170600E052
:105A0000761C00254FF0004406E05B1E42F1FF3299
:105A100020EA030521EA0204CAF10100B04206DAD5
:105A20001B49039808430190002000900EE0039A60
:105A3000C4F3D321E80A0A43164940EA44500A4312
:105A40003146CDE90002684600F057FE159810F087
:105A5000240F0BD01598C00715D13868DDE9001266
:105A6000031D3B600068C0E900120CE002A8694613
:105A700000F03AFE1598C00705D13868029A011D5A
:105A80003960006802604046F0E6000002FCFFFF5B
:105A90000000F07F0000F03F2DE9FF4F92461D46C9
:105AA00085B04FF00041DDE9124BDDE914727F1E35
:105AB00001EA4B50414940F0FF4940EA010800210A
:105AC00022F020004928049102D04E2828D04CE032
:105AD0003BA0012607C88DE80700A9690698641C49
